:020000040800F2
:1000000000040020E1010008C1020008C10200084C
:10001000C1020008C1020008C1020008C1020008B4
:10002000C1020008C1020008C10200081103000853
:10003000C1020008C1020008C1020008E102000874
:10004000C1020008C1020008C1020008C102000884
:10005000C1020008C1020008C1020008C102000874
:10006000C1020008C1020008C1020008C102000864
:10007000C1020008C1020008C1020008C102000854
:10008000C1020008C1020008C1020008C102000844
:10009000C1020008C1020008C1020008C102000834
:1000A000C1020008C1020008C1020008C102000824
:1000B000C1020008C1020008C1020008C102000814
:1000C000C1020008C1020008C1020008C102000804
:1000D000C1020008113F0008C1020008C102000867
:1000E000C1020008C1020008C1020008C1020008E4
:1000F000C1020008C1020008C1020008C1020008D4
:10010000C1020008C1020008C1020008C1020008C3
:10011000C1020008C1020008C1020008C1020008B3
:10012000C1020008C1020008C1020008C1020008A3
:10013000C1020008F1320008C1020008C102000833
:10014000C1020008C1020008C1020008C102000883
:10015000C1020008C1020008C1020008C102000873
:10016000C1020008C1020008C1020008C102000863
:10017000C1020008C1020008C1020008C102000853
:04018000C1020008B0
:10019000704700BFAFF30080AFF30080AFF3008083
:1001A000FEE700BFAFF30080AFF30080AFF3008045
:1001B00084B003900291019206E0039B019A1A60B9
:1001C000039B03F104030393039A029B9A42F4D323
:1001D00004B07047AFF30080AFF30080AFF300804E
:1001E00072B640F60004C2F2000484F309884FF0AE
:1001F000020484F31488BFF36F8F03F059FF40F2B9
:100200000000C2F2000040F20041C2F200014FF0D3
:100210005532FFF7CDFF40F20040C2F2000040F639
:100220000001C2F200014FF05532FFF7C1FF42F268
:100230008825C0F6010540F60004C2F2000405E07E
:100240002B68236004F1040405F1040540F608035B
:10025000C2F200039C42F3D340F60800C2F2000051
:1002600047F2A051C2F200014FF00002FFF7A0FFD9
:10027000FFF78EFF40F28414C0F6000403E0236809
:10028000984704F1040440F28413C0F600039C4232
:10029000F5D311F01DFA40F28414C0F6000403E017
:1002A0002368984704F1040440F28413C0F6000365
:1002B0009C42F5D3FFF774FFAFF30080AFF30080EB
:1002C000FEE700BFAFF30080AFF30080AFF3008024
:1002D00072B6FEE7AFF30080AFF30080AFF30080AB
:1002E00008B500F0E5FA4FF0200383F3118800F021
:1002F0009FFA00F0CDF900F0BBFA4FF0000383F352
:10030000118800F005FB00F043F808BDAFF3008052
:1003100010B483B0EFF309840194019B03F120032F
:100320000193019B83F309884FF0000383F3118845
:1003300003B010BC704700BFAFF30080AFF3008084
:1003400008B54FF46D43CEF200034FF000029A60FF
:100350004FF46D43CEF200034FF44072C0F2FA52F4
:10036000DA604FF007004FF0100100F0F1F84FF0A5
:100370000A004FF4007100F0EBF84FF00B004FF063
:10038000800100F0E5F808BDAFF30080AFF3008016
:1003900010B483B04FF0200383F311884FF46D4302
:1003A000CEF200035B6803F40063002B49D0EFF347
:1003B00009840194019BA3F120030193019B83F322
:1003C0000988019B4FF08072DA6140F63853C2F21F
:1003D00000039B6993F82330002B11D040F638536B
:1003E000C2F200031B689A6840F63853C2F2000359
:1003F0009B699B689A4294BF00230123DBB210E003
:1004000040F63853C2F200031B689A6840F638532E
:10041000C2F200039B699B689A4234BF0023012308
:10042000DBB2002B06D0019A40F25143C0F6000324
:1004300093610AE0019A40F25C43C0F600039361C5
:1004400003E04FF0000383F3118803B010BC704742
:1004500000F0AEF900F054FE00F0CAF900DF00BF72
:1004600003460A462DE9F04FC2F80CD0D3F80CD061
:10047000BDE8F08FAFF30080AFF30080AFF30080F2
:1004800008B500F0B5F94FF0000383F31188284652
:10049000A04700F08DFF08BDAFF30080AFF30080F0
:1004A00010B485B001900091019B03F003034FEA63
:1004B000C30303934FF46143CEF20003019A4FEA62
:1004C00092004FF46142CEF2000201994FEA91018D
:1004D00001F1C00152F821201146039A4FF0FF04A8
:1004E00004FA02F26FEA02021140039A009C04FA35
:1004F00002F2114300F1C00243F822104FF46143AD
:10050000CEF20003019A4FEA5212019901F01F0145
:100510004FF0010000FA01F102F1600243F82210ED
:100520004FF46143CEF20003019A4FEA521201994F
:1005300001F01F014FF0010000FA01F143F8221011
:1005400005B010BC704700BFAFF30080AFF3008070
:1005500010B485B001900091019B03F003034FEAB2
:10056000C30303934FF46D43CEF20003019A4FEAA5
:1005700092004FF46D42CEF2000201994FEA9101D0
:1005800001F1060152F821201146039A4FF0FF04B1
:1005900004FA02F26FEA02021140039A009C04FA84
:1005A00002F2114300F1060243F8221005B010BC1C
:1005B000704700BFAFF30080AFF30080AFF300805F
:1005C00082B0019040F63853C2F200039A6941F6B6
:1005D0007003C0F601039361FEE700BFAFF3008034
:1005E00000B583B0FFF7ACFE00F04AFB00F060FA04
:1005F00001F02EFF01F09CFF00F0EAF940F6C80080
:10060000C2F200004FF0400100F09AFD024640F6B1
:100610003853C2F200039A6140F63853C2F2000325
:100620009B694FF0010283F8202040F63853C2F254
:1006300000039A6940F20043C2F20003D36100F064
:100640009FF84FF0000383F3118862B640F63853E9
:10065000C2F200039A6941F67803C0F60103936180
:1006600040F2C153C0F600034FF00002009240F682
:100670000800C2F200004FF0C0014FF0010200F08C
:10068000FFFD03B000BD00BFAFF30080AFF30080FB
:1006900000B583B000F06CF940F63853C2F20003A5
:1006A0009B6993F82330002B0BD040F63853C2F2ED
:1006B00000039B6993F8232002F1FF32D2B283F842
:1006C000232040F63853C2F200039B695A6A02F1B4
:1006D00001025A6240F62853C2F20003DB6803F1BC
:1006E000010240F62853C2F20003DA6040F62853B4
:1006F000C2F200031A6840F62853C2F200039A427D
:1007000039D040F62853C2F200031B689A6802F100
:10071000FF329A6025E0019BDB680093019B4FF05C
:100720000002DA60019B1A6840F62853C2F2000307
:100730005360019B1A6840F62853C2F200031A6006
:1007400000F096F84FF0000383F31188019B1A69BB
:10075000009B104698474FF0200383F3118800F068
:1007600067F840F62853C2F200031B680193019B0F
:100770009B68002BCFD003B000BD00BFAFF300805B
:1007800008B540F61413C2F200031B68002B06D113
:1007900040F61813C2F200031B68002B05D041F687
:1007A0009000C0F6010000F073F908BDAFF30080BF
:1007B00008B540F61413C2F200031B68002B06D1E3
:1007C00040F61813C2F200031B68002B05D041F657
:1007D0009800C0F6010000F05BF940F61813C2F271
:1007E00000034FF001021A6008BD00BFAFF30080A4
:1007F00008B540F61413C2F200031B68002B06D1A3
:1008000040F61813C2F200031B68002B05DC41F60A
:10081000A000C0F6010000F03BF940F61813C2F248
:1008200000034FF000021A6008BD00BFAFF3008064
:1008300008B540F61413C2F200031B68002B06DD56
:1008400040F61813C2F200031B68002B05D041F6D6
:10085000A800C0F6010000F01BF940F61813C2F220
:1008600000034FF001021A6008BD00BFAFF3008023
:1008700008B540F61413C2F200031B68002B06DD16
:1008800040F61813C2F200031B68002B05DC41F68A
:10089000B000C0F6010000F0FBF840F61813C2F2F9
:1008A00000034FF000021A6008BD00BFAFF30080E4
:1008B00008B54FF0200383F3118840F61413C2F2F9
:1008C00000031B68002B06DB40F61813C2F200037E
:1008D0001B68002B05D041F6B800C0F6010000F0FF
:1008E000D7F840F61413C2F200031B6803F10102AB
:1008F00040F61413C2F200031A604FF0000383F3B2
:10090000118808BDAFF30080AFF30080AFF3008023
:1009100008B54FF0200383F3118840F61413C2F298
:1009200000031B68002B06DD40F61813C2F200031B
:100930001B68002B05D041F6C000C0F6010000F096
:10094000A7F840F61413C2F200031B6803F1FF324C
:1009500040F61413C2F200031A604FF0000383F351
:10096000118808BDAFF30080AFF30080AFF30080C3
:1009700008B540F61413C2F200031B68002B06DB17
:1009800040F61813C2F200031B68002B05DC41F689
:10099000C800C0F6010000F07BF808BDAFF300808E
:1009A00008B540F61413C2F200031B68002B06D1F1
:1009B00040F61813C2F200031B68002B05DC41F659
:1009C000D000C0F6010000F063F808BDAFF300806E
:1009D00040F61C13C2F200034FF040021A6040F6CA
:1009E0001C13C2F20003014A5A6070472409002018
:1009F00082B0019040F61C13C2F200035A6840F620
:100A00002853C2F20003DB68136040F61C13C2F2E5
:100A100000035A6840F63853C2F200039B695360E2
:100A200040F61C13C2F200035B68019A926A9A6056
:100A300040F61C13C2F200035B68019A92F8202072
:100A40001A7340F61C13C2F200035B6803F1100234
:100A500040F61C13C2F200035A6040F61C13C2F2A7
:100A600000035A68054B9A4205D340F61C13C2F2A4
:100A70000003034A5A6002B0704700BF240D0020F3
:100A800024090020AFF30080AFF30080AFF30080B3
:100A900000B583B0019040F62453C2F20003019ADE
:100AA0001A60FFF715FC03B000BD00BFAFF3008074
:100AB00040F62853C2F2000340F62852C2F2000268
:100AC0005A6040F62853C2F200035A6840F6285391
:100AD000C2F200031A6040F62853C2F200034FF03E
:100AE000FF329A6040F62853C2F200034FF0000232
:100AF000DA607047AFF30080AFF30080AFF300809F
:100B000000B587B00390029101920093FFF730FF88
:100B1000039B002B05D0019B002B02D0029B002BD6
:100B200005D141F6E000C0F60100FFF7B1FF039BDD
:100B3000009A1A61039B019ADA6040F62853C2F2C8
:100B400000031B68059307E0059B9B68029AD31A74
:100B50000293059B1B680593059B9A68029B9A422A
:100B6000F2D3039B059A1A60039B1B685A68039B88
:100B70005A60039B5B68059A03995160059A526815
:100B80001A60039B029A9A60059A40F62853C2F2B3
:100B900000039A4205D0059B9A68029BD21A059BD6
:100BA0009A6007B000BD00BFAFF30080AFF30080D4
:100BB00000B583B00190FFF7DBFE019B002B05D150
:100BC00041F6F000C0F60100FFF762FF019BDB6811
:100BD000002B05D141F60010C0F60100FFF758FFC9
:100BE000019B1A6840F62853C2F200039A4208D0CB
:100BF000019B1B68019A12689168019A92688A1891
:100C00009A60019B5B68019A12681A60019B1B68DD
:100C1000019A52685A60019B4FF00002DA6003B0FB
:100C200000BD00BFAFF30080AFF30080AFF30080E2
:100C300084B00190019B1B680393039B1A68019B7E
:100C40001A60019B1B68019A5A60039B184604B006
:100C5000704700BFAFF30080AFF30080AFF30080B8
:100C600082B00190019B5B68019A12681A60019B37
:100C70001B68019A52685A60019B184602B070477F
:100C800040F63853C2F2000340F63852C2F2000276
:100C90005A6040F63853C2F200035A6840F638539F
:100CA000C2F200031A6040F63853C2F200034FF05C
:100CB00000029A6040F63853C2F2000340F6385200
:100CC000C2F200025A6140F63853C2F200035A6978
:100CD00040F63853C2F200031A617047AFF3008048
:100CE00000B585B00190FFF743FE019B93F82030DB
:100CF000002B04D0019B93F820300E2B05D141F638
:100D00002010C0F60100FFF7C3FE019B4FF0000268
:100D100083F8202040F63853C2F200030393039B6C
:100D20001B680393039B9A68019B9B689A42F6D2C7
:100D3000019B039A1A60039B5A68019B5A60019BAE
:100D40005B68039A01995160039A52681A60019B8B
:100D5000184605B000BD00BFAFF30080AFF30080C0
:100D600000B585B003468DF80730FFF719FE40F651
:100D70003853C2F200039B690393039B9DF807203D
:100D800083F82020039B4FF0140283F8232040F6C1
:100D90003850C2F20000FFF74BFF024640F63853CE
:100DA000C2F200039A6140F63853C2F200039B6915
:100DB0004FF0010283F820200398FFF719FE6B46DD
:100DC000A3F12402039BDB699A4205D241F6341059
:100DD000C0F60100FFF75CFE40F63853C2F2000394
:100DE0009B6918460399FFF73BFB05B000BD00BFA8
:100DF00000B585B00190019B03934FF0200383F36E
:100E00001188FFF715FD039B93F820300D2B2FD889
:100E100001A252F823F000BF510E0008710E000825
:100E2000710E00085F0E0008710E00086B0E0008BE
:100E3000710E0008710E0008710E0008710E000896
:100E4000710E0008710E0008710E00086B0E00088C
:100E5000FFF70EFD4FF0000383F3118815E0039BAD
:100E60009B6A9A6802F101029A600398FFF7F8FE04
:100E7000039B4FF0FF329A620398FFF731FFFFF7B1
:100E8000F7FC4FF0000383F3118805B000BD00BFED
:100E900000B589B0034600918DF80730FFF780FD5B
:100EA000009BB3F1FF3F1AD040F63853C2F2000363
:100EB0009B6903AA1046009940F6F152C0F6000261
:100EC000FFF71EFE9DF807301846FFF749FF069B07
:100ED000002B09D003AB1846FFF76AFE04E09DF82B
:100EE00007301846FFF73CFF40F63853C2F20003C4
:100EF0009B699B6A184609B000BD00BFAFF3008034
:100F000000B585B001900091FFF74AFD019B009A62
:100F10009A62019B9A6840F63853C2F200039B69BB
:100F20009B689A4203D80198FFF7DAFE28E040F662
:100F30003853C2F200039B691846FFF7D1FE0346FF
:100F4000039340F63853C2F20003019A9A61019B61
:100F50004FF0010283F820200398FFF749FD6B460C
:100F6000A3F12402039BDB699A4205D241F63410B7
:100F7000C0F60100FFF78CFD01980399FFF770FAA6
:100F800005B000BDAFF30080AFF30080AFF3008089
:100F900008B5FFF705FD40F63853C2F200031B68A1
:100FA0009A6840F63853C2F200039B699B689A42E4
:100FB00001D900F045F808BDAFF30080AFF3008021
:100FC00000B583B040F63853C2F200039B69019329
:100FD00040F63850C2F20000FFF72AFE024640F603
:100FE0003853C2F200039A6140F63853C2F200034C
:100FF0009B694FF0010283F82020019B4FF01402FF
:1010000083F823200198FFF76BFE0198FFF7F0FCAF
:101010006B46A3F12402019BDB699A4205D241F69B
:101020003410C0F60100FFF733FD40F63853C2F22A
:1010300000039B6918460199FFF712FA03B000BD3F
:1010400000B583B040F63853C2F200039B690093A9
:1010500040F63850C2F20000FFF7EAFD024640F6C3
:101060003853C2F200039A6140F63853C2F20003CB
:101070009B694FF0010283F82020009B4FF0000293
:1010800083F8202040F63853C2F200030193019BFD
:101090001B680193019B9A68009B9B689A42F6D853
:1010A000009B019A1A60019B5A68009B5A60009B42
:1010B0005B68019A00995160019A52681A60009821
:1010C000FFF796FC6B46A3F12402009BDB699A4272
:1010D00005D241F63410C0F60100FFF7D9FC40F606
:1010E0003853C2F200039B6918460099FFF7B8F91C
:1010F00003B000BDAFF30080AFF30080AFF300801A
:1011000008B540F63853C2F200039B6993F82330C8
:10111000002B02D1FFF754FF01E0FFF791FF08BD5C
:1011200084B00190019B1B680393039B1A68019B89
:101130001A60039B184604B0704700BFAFF30080ED
:1011400082B001900091019B009A9A60019B4FF040
:10115000020283F82020019B4FF0000283F8212037
:10116000019B4FF0140283F82320019B009A5A64DC
:10117000019B4FF000021A64019B4FF00002DA63FA
:10118000019B4FF000025A62019B4FF0010283F86D
:101190002220019B4FF000029A61019A40F63853D9
:1011A000C2F20003136140F63853C2F200035A69D9
:1011B000019B5A61019B5A6940F63853C2F2000301
:1011C0000199596140F63853C2F200035B6913611B
:1011D000019B03F12C02019BDA62019B03F13002B7
:1011E000019B5A63019B5A6B019B1A63019B03F19C
:1011F0004C02019BDA61019B184602B0704700BFA8
:1012000000B587B00390029101920093039B059370
:10121000FFF7AEFB039B002B08D0029BAF2B05D939
:10122000019B7F2B02D8009B002B05D141F650106B
:10123000C0F60100FFF72CFC029BA3F12403039AE4
:10124000D218059BDA60059BDB68009A1A60059B43
:10125000DB68089A5A60059BDA6840F28143C0F661
:101260000003136205980199FFF76AFF03461846C9
:1012700007B000BDAFF30080AFF30080AFF3008094
:1012800000B589B005900491039202934FF02003BA
:1012900083F31188FFF78CFA0A9B00930598049951
:1012A000039A029BFFF7ACFF0346079307984FF0A2
:1012B0000001FFF725FEFFF79BFA4FF0000383F3D1
:1012C0001188079B184609B000BD00BFAFF300802E
:1012D00000B585B00190019B7F2B05D941F66410C4
:1012E000C0F60100FFF7D4FB4FF0200383F3118811
:1012F000FFF75EFA40F63853C2F200039B695B6C5D
:10130000039340F63853C2F200039B699A6840F693
:101310003853C2F200039B695B6C9A4208D040F6D6
:101320003853C2F200039B699A68019B9A4206D225
:1013300040F63853C2F200039B69019A9A6040F666
:101340003853C2F200039B69019A5A64FFF720FEEA
:10135000FFF74EFA4FF0000383F31188039B184602
:1013600005B000BDAFF30080AFF30080AFF30080A5
:1013700000B583B00190019B002B05D141F6901080
:10138000C0F60100FFF784FB4FF0200383F31188C0
:10139000FFF70EFA4FF006000199FFF779FDFFF70E
:1013A00027FA4FF0000383F3118803B000BD00BF9C
:1013B00000B583B001904FF0200383F31188FFF74D
:1013C000F7F9019800F004F803B000BDAFF3008016
:1013D00000B585B0019040F63853C2F200039B6916
:1013E0000393039B019A9A6209E0039B03F12C0388
:1013F0001846FFF795FE03461846FFF771FC039B5E
:10140000DA6A039B03F12C039A42EED1039B93F813
:10141000213003F00303002B09D1039B5B69039A7E
:1014200012691A61039B1B69039A52695A614FF052
:101430000E00FFF795FC41F6A010C0F60100FFF783
:1014400027FB05B000BD00BFAFF30080AFF3008005
:1014500082B001900091019B009A1A60009B5A682B
:10146000019B5A60019B5B68009A01995160009A48
:1014700052681A6002B07047AFF30080AFF300808B
:1014800084B00190019B1B680393039B1A68019B26
:101490001A60019B1B68019A5A60039B184604B0AE
:1014A000704700BFAFF30080AFF30080AFF3008060
:1014B00084B00190019B5B680393039B5A68019B76
:1014C0005A60019B5B68019A1A60039B184604B03E
:1014D000704700BFAFF30080AFF30080AFF3008030
:1014E00000B583B001900091019B002B02D0009BBE
:1014F000002B05DA41F6F010C0F60100FFF7C8FA3C
:10150000019A019B5A60019B5A68019B1A60019BDA
:10151000009A9A6003B000BDAFF30080AFF3008083
:1015200000B585B001900091FFF722FA019B002BD6
:1015300002D0009B002B05DA41F60020C0F6010026
:10154000FFF7A6FA019B9B68002B04DB019B1A683E
:10155000019B9A420ED0019B9B68002B04DA019BF1
:101560001A68019B9A4205D141F61020C0F601008D
:10157000FFF78EFA019B9B680393019B009A9A6088
:101580000BE0019B1846FFF793FF03461846FFF751
:10159000A7FB03466FF001029A62039B03F101036C
:1015A0000393039B002BECDD05B000BDAFF300807F
:1015B00000B583B001900091FFF7F2F9019B002B79
:1015C00005D141F64820C0F60100FFF761FA019B02
:1015D0009B68002B04DB019B1A68019B9A420ED08A
:1015E000019B9B68002B04DA019B1A68019B9A42BD
:1015F00005D141F66020C0F60100FFF749FA019BD2
:101600009B6803F1FF32019B9A60019B9B68002B52
:1016100023DA009B002B08D1019B9B6803F1010298
:10162000019B9A604FF0FF3319E040F63853C2F245
:1016300000039B69019A9A6240F63853C2F2000394
:101640009A69019B10461946FFF702FF4FF003000D
:101650000099FFF71DFC034601E04FF00003184618
:1016600003B000BDAFF30080AFF30080AFF30080A4
:1016700000B583B00190019B002B05D141F6782085
:10168000C0F60100FFF704FA019B9B68002B04DB06
:10169000019B1A68019B9A420ED0019B9B68002B0C
:1016A00004DA019B1A68019B9A4205D141F6882011
:1016B000C0F60100FFF7ECF94FF0200383F3118827
:1016C000FFF776F8019B9B6803F10102019B9A608A
:1016D000019B9B68002B09DC019B1846FFF7D0FE9D
:1016E000034618464FF00001FFF70AFCFFF780F8A9
:1016F0004FF0000383F3118803B000BDAFF3008007
:1017000000B585B00190FFF733F9019B002B05D19F
:1017100041F69C20C0F60100FFF7BAF9019B9B68D7
:10172000002B04DB019B1A68019B9A420ED0019B9F
:101730009B68002B04DA019B1A68019B9A4205D131
:1017400041F6B020C0F60100FFF7A2F9019B9B68AB
:1017500003F10102019B9A60019B9B68002B0CDC4A
:10176000019B1846FFF78CFE03460393039B4FF043
:1017700000029A620398FFF7B3FA05B000BD00BFFC
:1017800084B001900091009B0393039B1B6803931B
:10179000039A009B9A4205D0039B9A68019B9B6821
:1017A0009A42F2D2019B039A1A60039B5A68019BEA
:1017B0005A60019B5B68039A01995160039A5268D1
:1017C0001A6004B0704700BFAFF30080AFF3008031
:1017D00084B00190019B1B680393039B1A68019BD3
:1017E0001A60019B1B68019A5A60039B184604B05B
:1017F000704700BFAFF30080AFF30080AFF300800D
:1018000082B00190019B5B68019A12681A60019B8B
:101810001B68019A52685A60019B184602B07047D3
:1018200000B583B00190019B002B05D141F64030FB
:10183000C0F60100FFF72CF9019A019B5A60019B49
:101840005A68019B1A60019B4FF000029A6003B036
:1018500000BD00BFAFF30080AFF30080AFF30080A6
:1018600000B583B001904FF0200383F31188FEF799
:101870009FFF019800F00CF8FEF7BAFF4FF000034D
:1018800083F3118803B000BDAFF30080AFF3008095
:1018900000B585B0019040F63853C2F200039B6951
:1018A0000293FFF77DF8019B002B05D141F65030E4
:1018B000C0F60100FFF7ECF8019B9B68002B62D09B
:1018C000019B9B68039335E0029B9A68039B9A6097
:1018D000039B93F82030042B04D0052B11D0002B50
:1018E0001AD026E00398FFF78BFF0246039B9B6A02
:1018F00010461946FFF744FF039B9B6A9B680393BE
:1019000018E00398FFF77CFF0246039B9B6A104692
:101910001946FFF735FF0CE0039B4FF0010283F8F7
:1019200020200398FFF76CFF03461846FFF7D8F90D
:1019300000BF05E0039B9A68029B9B689A42C3D351
:10194000019B02981946FFF71BFF029B019A9A62BE
:101950004FF00400FFF704FA019B9A68029B9A4239
:1019600005D041F66030C0F60100FFF791F8029B08
:101970001A6C019B9A4210D041F67430C0F60100F7
:10198000FFF786F809E0019B029A9A60029B1A6CA5
:10199000019BDA60029B019A1A6405B000BD00BF8A
:1019A00000B587B040F63853C2F200039B69039339
:1019B0004FF0200383F31188FEF7FAFE039B1B6CA4
:1019C000002B05D141F69C30C0F60100FFF760F80E
:1019D000039B1B6C9A68039B9A4205D041F6B0307A
:1019E000C0F60100FFF754F8039B1B6C0293029BA7
:1019F000DA68039B1A64029B1A68029B9A4234D0ED
:101A0000039B5B6C0493039B1B6C059311E0059B8C
:101A10001A68059B9A4209D0059B1B689A68049B2B
:101A20009A4203D9059B1B689B680493059BDB685E
:101A30000593059B002BEAD1039B049A9A60029BB5
:101A40001846FFF7C5FE03460193029B019A9A6070
:101A5000019B1A6C029BDA60019B029A1A6401983E
:101A60004FF00001FFF74CFA03E0029B4FF0000239
:101A70009A60FEF7BDFE4FF0000383F31188029BCE
:101A8000184607B000BD00BFAFF30080AFF3008081
:101A900000B585B0039002910192039B002B02D008
:101AA000029B002B05D141F6F030C0F60100FEF795
:101AB000EFFF4FF0200383F31188FEF779FE039BBD
:101AC0001A68029B1A60039B029A1A6040F6385308
:101AD000C2F200039A69029B5A60029B019A9A60C3
:101AE000FEF786FE4FF0000383F3118805B000BDBA
:101AF00000B583B001904FF0200383F31188FEF707
:101B000057FE40F63853C2F200039A6940F6385344
:101B1000C2F200039B69D96B019B0B43D363D36B68
:101B20000193FEF765FE4FF0000383F31188019BDC
:101B3000184603B000BD00BFAFF30080AFF30080D4
:101B400000B583B001900091FEF712FF019B002BBE
:101B500005D141F62C40C0F60100FEF799FF019B2C
:101B6000DA6B009B1A43019BDA63019B93F82030E8
:101B7000082B06D1019BDA6B019B9B6A1340002B5B
:101B80000DD1019B93F82030092B0FD1019BDA6B0B
:101B9000019B9B6A1A40019B9B6A9A4206D101985D
:101BA000FFF79EF803464FF000029A6203B000BDB3
:101BB00000B585B001900091FEF7DAFE019B002B85
:101BC00005D141F64040C0F60100FEF761FF019BE0
:101BD0001B6803930CE0039B5A68039B9968009B66
:101BE0000B4310461946FFF7ABFF039B1B6803939B
:101BF000039A019B9A42EED105B000BDAFF300807D
:101C000000B585B0019040F63853C2F200039B69DD
:101C100002934FF0200383F31188FEF7C9FD029B66
:101C2000DA6B019B13400393039B002B0BD1029BA8
:101C3000019A9A624FF00800FFF792F8029BDA6B64
:101C4000019B13400393029BDA6B039B6FEA030330
:101C50001A40029BDA63FEF7CBFD4FF0000383F3DB
:101C60001188039B184605B000BD00BFAFF300808C
:101C700000B585B0039002910192039B002B05D023
:101C8000029B002B02D0019B002B05DC41F680401B
:101C9000C0F60100FEF7FCFE039B029ADA60039B8C
:101CA000DA68039B9A60039B9A68039B1A60019B06
:101CB0004FEA8303029AD218039B5A60039B03F1F5
:101CC0001C0318460199FFF70BFC039B03F110035B
:101CD00018464FF00001FFF703FC05B000BD00BF40
:101CE00000B583B00190019B002B05D141F69040D7
:101CF000C0F60100FEF7CCFE4FF0200383F31188FD
:101D0000FEF756FD019B1A68019BDA60019BDA68B9
:101D1000019B9A60019B03F11C02019B5B681946C1
:101D2000019B1B68CB1A4FEAA30310461946FFF725
:101D3000F7FB019B03F1100318464FF00001FFF77A
:101D4000EFFBFFF725F9FEF753FD4FF0000383F398
:101D5000118803B000BD00BFAFF30080AFF3008077
:101D600000B587B00390029101924FF0200383F3F6
:101D70001188FEF71DFD03980299019A00F010F8F2
:101D800003460593FEF734FD4FF0000383F31188FB
:101D9000059B184607B000BDAFF30080AFF300808D
:101DA00000B587B0039002910192FEF7F9FD039B05
:101DB000002B05D141F6A040C0F60100FEF768FEF9
:101DC000039B03F11C0318460199FFF7F1FB03463F
:101DD0000593059B002B19D1039B9B68029A1A60FF
:101DE00003F10402039B9A60039B9A68039B5B6860
:101DF0009A4203D3039B1A68039B9A60039B03F1E7
:101E000010031846FFF77CFCFFF7C2F8059B184645
:101E100007B000BDAFF30080AFF30080AFF30080E8
:101E200000B587B00390029101924FF0200383F335
:101E30001188FEF7BDFC03980299019A00F010F892
:101E400003460593FEF7D4FC4FF0000383F311889B
:101E5000059B184607B000BDAFF30080AFF30080CC
:101E600000B587B0039002910192FEF799FD039BA4
:101E7000002B02D0029B002B05D141F6E840C0F6B2
:101E80000100FEF705FE039B03F1100318460199BC
:101E9000FFF78EFB03460593059B002B1AD1039B8E
:101EA000DB681968029A116003F10402039BDA608F
:101EB000039BDA68039B5B689A4203D3039B1A680F
:101EC000039BDA60039B03F11C031846FFF718FC21
:101ED000FFF75EF8059B184607B000BDAFF3008022
:101EE00082B001900091019B009A1A60009B5A6891
:101EF000019B5A60019B5B68009A01995160009AAE
:101F000052681A6002B07047AFF30080AFF30080F0
:101F100084B00190019B1B680393039B1A68019B8B
:101F20001A60019B1B68019A5A60039B184604B013
:101F3000704700BFAFF30080AFF30080AFF30080C5
:101F400000B583B001900091009B002B02D14FF0AF
:101F5000FF3316E040F63853C2F200039B69019A42
:101F60009A6240F63853C2F200039A69019B104608
:101F70001946FFF7B5FF4FF00D000099FEF788FFF7
:101F80000346184603B000BDAFF30080AFF30080F6
:101F900084B00390029101920093039A039B5A60CC
:101FA000039B5A68039B1A60039B4FF000029A60E0
:101FB000039B029A5A61039B5A69039B9A61039B94
:101FC0009A69039BDA60029A019BD218039B1A61FB
:101FD000039B009ADA61039B049A1A6204B070476B
:101FE00000B583B001900B468DF80330FEF7C0FCBE
:101FF000019B5A69019B9B699A4206D1019B9B6890
:10200000002B02D06FF003032BE0019B9B6803F1D0
:102010000102019B9A60019B5B699DF803201A7085
:1020200003F10102019B5A61019B5A69019B1B69E3
:102030009A4203D3019BDA68019B5A61019B1A689B
:10204000019B9A420BD0019B1846FFF761FF0346A4
:102050001846FEF745FE03464FF000029A624FF025
:102060000003184603B000BDAFF30080AFF300805B
:1020700000B585B0019000914FF0200383F31188E3
:10208000FEF796FB019BDB69002B15D0019BDB69FA
:102090000198984710E001980099FFF751FF034617
:1020A0000393039B002B08DAFEF7A2FB4FF000031B
:1020B00083F31188039B25E000BF019B9B68002BE5
:1020C000E9D0019B9B6803F1FF32019B9A60019B61
:1020D0009B691A788DF80B2003F10102019B9A612C
:1020E000019B9A69019B1B699A4203D3019BDA68A1
:1020F000019B9A61FEF77CFB4FF0000383F311888C
:102100009DF80B30184605B000BD00BFAFF300804E
:1021100000B587B00390029101920093039BDB69A5
:1021200004934FF000030593019B002B05D141F66A
:102130001050C0F60100FEF7ABFC4FF0200383F314
:102140001188FEF735FB049B002B12D0049B0398EB
:1021500098470EE003980099FFF7F2FE0346002B24
:1021600008D0FEF745FB4FF0000383F31188059B71
:102170003BE000BF039B9B68002BEBD0039B9B685D
:1021800003F1FF32039B9A60039B9B691978029AC3
:102190001170029A02F10102029203F10102039B03
:1021A0009A61039B9A69039B1B699A4203D3039B21
:1021B000DA68039B9A61FEF71BFB4FF0000383F381
:1021C0001188059B03F101030593019B03F1FF3384
:1021D0000193019B002B01D1059B06E04FF02003EA
:1021E00083F31188FEF7E4FAADE7184607B000BDA7
:1021F00084B00390029101920093039A039B5A606A
:10220000039B5A68039B1A60039B019A9A60039B85
:10221000029A5A61039B5A69039B9A61039B9A69CC
:10222000039BDA60029A019BD218039B1A61039BFD
:10223000009ADA61039B049A1A6204B0704700BFE7
:1022400000B587B003900B4601928DF80B304FF02C
:10225000200383F31188FEF7ABFA10E0039801998D
:10226000FFF76EFE03460593059B002B07DAFEF78A
:10227000BFFA4FF0000383F31188059B2CE0039B0A
:102280009B68002BEAD0039B9B6803F1FF32039B02
:102290009A60039B5B699DF80B201A7003F10102A1
:1022A000039B5A61039B5A69039B1B699A4203D3A0
:1022B000039BDA68039B5A61039BDB69002B03D005
:1022C000039BDB6903989847FEF792FA4FF00003EF
:1022D00083F311884FF00003184607B000BD00BF1C
:1022E00000B585B00190FEF743FB019B5A69019B45
:1022F0009B699A4206D1019B9B68002B02D06FF02C
:1023000002032BE0019B9B6803F10102019B9A6091
:10231000019B9B691A788DF80F2003F10102019B44
:102320009A61019B9A69019B1B699A4203D3019BA5
:10233000DA68019B9A61019B1A68019B9A420BD053
:10234000019B1846FFF7E4FD03461846FEF7C8FC5C
:1023500003464FF000029A629DF80F30184605B010
:1023600000BD00BFAFF30080AFF30080AFF300808B
:1023700000B587B00390029101920093039BDB6943
:1023800004934FF000030593019B002B05D141F608
:102390002450C0F60100FEF77BFB4FF0200383F3CF
:1023A0001188FEF705FA0EE003980099FFF7C8FDC3
:1023B0000346002B07D0FEF71BFA4FF0000383F310
:1023C0001188059B41E0039B9B68002BECD0039B8D
:1023D0009B6803F1FF32039B9A60039B5B69029A3F
:1023E00012781A7003F10102039B5A61029B03F1F8
:1023F00001030293039B5A69039B1B699A4203D30F
:10240000039BDA68039B5A61049B002B02D0049B58
:1024100003989847FEF7ECF94FF0000383F3118817
:10242000059B03F101030593019B03F1FF33019326
:10243000019B002B01D1059B07E04FF0200383F3A4
:102440001188FEF7B5F900BFBDE7184607B000BD1B
:1024500047F2A053C2F2000303F1070323F007037E
:102460001A4640F65453C2F200031A604CF20003BD
:10247000C2F2010323F007031A4640F65853C2F292
:1024800000031A60704700BFAFF30080AFF3008015
:1024900000B585B001904FF0200383F31188FEF75B
:1024A00087F9019800F00CF803460393FEF7A0F9B2
:1024B0004FF0000383F31188039B184605B000BD5D
:1024C00000B585B00190FEF753FA019B03F10703B5
:1024D00023F00703019340F65853C2F200031B6830
:1024E0001A4640F65453C2F200031B68D31A1A4628
:1024F000019B9A4202D24FF0000312E040F654537F
:10250000C2F200031B68039340F65453C2F2000367
:102510001A68019BD21840F65453C2F200031A60A5
:10252000039B184605B000BDAFF30080AFF30080F9
:1025300008B540F66053C2F2000342F29142C0F681
:1025400000021A6040F66053C2F200034FF000022E
:102550009A6040F66053C2F200034FF00002DA6066
:102560000148FFF75DF908BD700D0020AFF3008052
:1025700000B587B001900091019B002B04D140F67B
:102580006053C2F200030193009B03F1070323F0A1
:1025900007030093019B03F108030593019B03F1DB
:1025A00010031846FFF75CF936E0059B1B6804939F
:1025B000049B5A68009B9A422CD3049B5A68009B48
:1025C00003F108039A4204D2049B1A68059B1A601F
:1025D00017E0009B03F10803049AD3180393049BAC
:1025E0001A68039B1A60049B5A68009BD31AA3F1D4
:1025F0000802039B5A60059B039A1A60049B009A89
:102600005A60049B019A1A60FFF7CAF9049B03F110
:10261000080325E0049B0593059B1B68002BC4D190
:10262000FFF7BEF9019B1B68002B17D0019B1B68AD
:10263000009A02F108021046984703460493049B4F
:10264000002B0BD0049B019A1A60049B009A5A60DD
:10265000049B03F108030493049B01E04FF0000383
:10266000184607B000BD00BFAFF30080AFF3008095
:1026700000B587B00190019B002B05D141F6505069
:10268000C0F60100FEF704FA019BA3F108030493CE
:10269000049B1B680393039B03F108030593039BAF
:1026A00003F110031846FFF7DBF8049A059B9A42E2
:1026B0000ED3059B5B6803F10803059AD218049BAF
:1026C0009A4205D941F66050C0F60100FEF7E0F9E4
:1026D000039B03F10802059B9A4203D0049A059BD1
:1026E0009A423FD9059B1B68002B04D0059B1A68B2
:1026F000049B9A4236D9059B1A68049B1A60059B75
:10270000049A1A60049B5B6803F10803049AD218C8
:10271000049B1B689A420ED1049B5A68049B1B6859
:102720005B68D31803F10802049B5A60049B1B6882
:102730001A68049B1A60059B5B6803F10803059AFD
:10274000D218049B9A4211D1059B5A68049B5B687E
:10275000D31803F10802059B5A60049B1A68059B75
:102760001A6003E0059B1B6805939EE700BFFFF717
:1027700017F907B000BD00BFAFF30080AFF30080D2
:1027800008B500F0A5FB00F01BFB42F23000C0F6DC
:10279000010001F00DFC00F00BF800F051FA01F01F
:1027A0008FFC08BDAFF30080AFF30080AFF3008073
:1027B00008B500F0F5FD08BDAFF30080AFF3008071
:1027C00000B583B00190019B4FF001021A70019B8C
:1027D0004FF000025A60019B03F1080318464FF0C6
:1027E0000001FEF77DFE019B03F1140318464FF034
:1027F0000001FEF775FE019B03F12002019B1A62A6
:1028000003B000BDAFF30080AFF30080AFF30080F2
:1028100000B583B001900091019B002B02D0009B7A
:10282000002B05D141F68050C0F60100FEF730F9CB
:102830004FF0200383F31188FDF7BAFF019B1B784B
:10284000012B05D041F69050C0F60100FEF720F9AB
:10285000019B009A5A60019800F0AAFE019B4FF07C
:1028600002021A70FDF7C4FF4FF0000383F31188D2
:1028700003B000BDAFF30080AFF30080AFF3008082
:1028800000B587B0039002910192039B002B02D008
:10289000029B002B05D141F6BC50C0F60100FEF7AB
:1028A000F7F8039B1B78022B3AD041F6DC50C0F6B8
:1028B0000100FEF7EDF833E04FF0200383F31188B9
:1028C000FDF776FF40F62853C2F20003DB6804935D
:1028D000039B03F1080318460199FEF769FE0346BE
:1028E0000593059BB3F1FF3F06D1FDF781FF4FF044
:1028F000000383F311881FE0019BB3F1FF3F09D070
:1029000040F62853C2F20003DB68049AD31A019AF6
:10291000D3180193FDF76CFF4FF0000383F3118888
:102920000398029900F06CFF03460593059B002B6A
:1029300002D0019B002BBFD1059B184607B000BDFC
:1029400000B583B00190019B002B05D141F6FC50EE
:10295000C0F60100FEF79CF8019800F0D9FF03B023
:1029600000BD00BFAFF30080AFF30080AFF3008085
:1029700000B587B0039002910192039B002B02D017
:10298000029B002B05D141F62060C0F60100FEF746
:102990007FF8039B1B78022B3AD041F64060C0F6CB
:1029A0000100FEF775F833E04FF0200383F3118840
:1029B000FDF7FEFE40F62853C2F20003DB680493E5
:1029C000039B03F1140318460199FEF7F1FD03463A
:1029D0000593059BB3F1FF3F06D1FDF709FF4FF0CB
:1029E000000383F311881FE0019BB3F1FF3F09D07F
:1029F00040F62853C2F20003DB68049AD31A019A06
:102A0000D3180193FDF7F4FE4FF0000383F3118810
:102A10000398029900F0CCFF03460593059B002B19
:102A200002D0019B002BBFD1059B184607B000BD0B
:102A300000B583B00190019B002B05D141F6606089
:102A4000C0F60100FEF724F8019801F051F803B038
:102A500000BD00BFAFF30080AFF30080AFF3008094
:102A600000B583B00190019B002B05D141F6806039
:102A7000C0F60100FEF70CF8019B1B78022B05D075
:102A800041F69860C0F60100FEF702F8019801F0E7
:102A900077F80346184603B000BD00BFAFF30080CF
:102AA00000B585B0039002910192039B03F13403BA
:102AB00018460299019A4FF0FF33FFF759FC03467D
:102AC000184605B000BD00BFAFF30080AFF3008033
:102AD00000B585B0039002910192039B03F11003AE
:102AE00018460299019A4FF0FF33FFF711FB034696
:102AF000184605B000BD00BFAFF30080AFF3008003
:102B000000B583B001900B468DF80330019B03F1B3
:102B100034029DF80330104619464FF0FF32FFF79C
:102B20008FFB0346184603B000BD00BFAFF3008023
:102B300000B583B00190019B03F1100318464FF0DC
:102B4000FF31FFF795FA0346184603B000BD00BFFA
:102B500000B585B003900B4601928DF80B30039BB6
:102B600003F134029DF80B3010461946019AFFF725
:102B700067FB0346184605B000BD00BFAFF30080F9
:102B800000B583B001900091019B03F1100318463A
:102B90000099FFF76DFA0346184603B000BD00BF69
:102BA00000B585B00390029101920093039B03F15D
:102BB000340318460299019A009BFFF7D9FB03469C
:102BC000184605B000BD00BFAFF30080AFF3008032
:102BD00000B585B00390029101920093039B03F12D
:102BE000100318460299019A009BFFF791FA0346D9
:102BF000184605B000BD00BFAFF30080AFF3008002
:102C000000B585B001904FF0200383F31188FDF7E4
:102C1000CFFD019B9B680393019B4FF000029A60DC
:102C2000FDF7E6FD4FF0000383F31188039B184680
:102C300005B000BDAFF30080AFF30080AFF30080BC
:102C400008B501F075F908BDAFF30080AFF300805F
:102C500000B587B0059004910392059A41F6F07390
:102C6000C0F601031360059B03F10402059B5A6043
:102C7000059B4FF000029A60059B4FF001021A730A
:102C8000059B03F11002059B03F158030599009180
:102C9000104619464FF01002049BFFF779F9059B87
:102CA00003F13402059B03F1680305990091104676
:102CB00019464FF01002039BFFF79AFA07B000BDC8
:102CC00000B583B001900B468DF80330FDF750FE40
:102CD000019B002B05D141F6E860C0F60100FDF72D
:102CE000D7FE019B9B69002B0DD1019B9B6843F094
:102CF0000402019B9A60019B03F1040318464FF004
:102D00000001FEF755FF019B03F110029DF803300F
:102D100010461946FFF764F90346002B0DDA019BB4
:102D20009B6843F08002019B9A60019B03F10403BE
:102D300018464FF00001FEF73BFF03B000BD00BF97
:102D400082B001904FF48053CEF200035B681A46C4
:102D5000019B9A6002B07047AFF30080AFF3008030
:102D600084B001904FF48053CEF200035B6803936C
:102D7000019B9B68039AD21A40F68053C2F200036B
:102D80001B68D21A019B9A60019B9A68019BDB68C1
:102D90009A4204D9019B9A68019BDA6009E0019B81
:102DA0009A68019B1B699A4203D2019B9A68019B16
:102DB0001A6104B0704700BFAFF30080AFF300802A
:102DC00000B587B040F68053C2F200034FF0000216
:102DD0001A6001AB184600F013F8019B01AA1046D7
:102DE0009847029B01AA10469847039A40F68053E1
:102DF000C2F200031A6007B000BD00BFAFF300804D
:102E000082B00190019A42F64153C0F6000313606C
:102E1000019A42F66153C0F600035360019B4FF0E4
:102E200000029A60019B4FF00002DA60019B4FF0B4
:102E3000FF321A6102B07047AFF30080AFF3008039
:102E40004FF4E043C4F200034FF4E042C4F2000246
:102E5000126842F480721A604FF46053C4F20203A5
:102E60001B6F03F44073B3F5007F0DD04FF4605334
:102E7000C4F202034FF480321A674FF46053C4F275
:102E800002034FF000021A674FF46053C4F20203CA
:102E90001B6F03F40043002B17D14FF46053C4F2AF
:102EA00002034FF46052C4F20202126F42F4007245
:102EB0001A674FF46053C4F202034FF46052C4F235
:102EC0000202126F42F400421A677047AFF30080AB
:102ED00008B54FF46053C4F202034FF46052C4F2D9
:102EE0000202126942F001021A614FF46053C4F207
:102EF00002034FF000021A614FF46053C4F2020360
:102F00004FF46052C4F20202526942F001025A6167
:102F10004FF46053C4F202034FF000025A614FF4C1
:102F20006053C4F202034FF46052C4F20202926989
:102F300042F001029A614FF46053C4F202034FF071
:102F400000029A614FF46053C4F202034FF46052DE
:102F5000C4F20202126A1A624FF46053C4F202030E
:102F60004FF000021A624FF46053C4F202034FF4B0
:102F70006052C4F20202526A42F001025A624FF4F5
:102F80006053C4F202034FF000025A624EF2100383
:102F9000CEF200034DF2BF42C0F201025A604EF27F
:102FA0001003CEF200034FF000029A604EF21003BD
:102FB000CEF200034FF007021A604EF6F053CEF245
:102FC00000034EF6F052CEF20002D26842F0807258
:102FD000DA604FF48053CEF200034FF48052CEF209
:102FE0000002126842F001021A604FF46053C4F20A
:102FF00002034FF46052C4F20202126C42F080529B
:103000001A64FFF71DFF08BDAFF30080AFF3008027
:103010004FF46053C4F202034FF080521A644FF42D
:10302000E043C4F200034FF000021A604FF4605313
:10303000C4F202034FF46052C4F20202126842F07A
:1030400001021A6000BF4FF46053C4F202031B6810
:1030500003F00203002BF6D04FF46053C4F20203D6
:103060004FF46052C4F20202126842F480321A60D5
:1030700000BF4FF46053C4F202031B6803F4003333
:10308000002BF6D04FF46053C4F202034FF46052A9
:10309000C4F20202526F42F001025A6700BF4FF4BD
:1030A0006053C4F202035B6F03F00203002BF6D0FF
:1030B0004FF46053C4F2020343F61942C0F2405287
:1030C0005A604FF46053C4F202034FF46052C4F2EA
:1030D0000202126842F080721A6000BF4FF460531F
:1030E000C4F202031B6803F00073002BF6D04FF408
:1030F0006052C4F202024FF46053C4F202039B68B0
:1031000019464FF41443C3F208030B4393604FF482
:103110007053C4F2020340F203721A604FF460531A
:10312000C4F202034FF46052C4F20202926842F009
:1031300002029A6000BF4FF46053C4F202039B681E
:1031400003F00C03082BF6D14FF46053C4F20203D2
:103150004FF46052C4F20202526C42F480425A644C
:103160004FF46053C4F202034FF46052C4F20202FF
:10317000526E42F480425A66704700BFAFF300803F
:1031800084B00390029101924FF40043C4F2020311
:10319000019A5A614FF40043C4F20203039A916A00
:1031A000029A4FEA82120A4342F007021A6100BFF4
:1031B0004FF40043C4F202031B6903F00103DBB2C6
:1031C000002BF5D104B07047AFF30080AFF300805F
:1031D00082B0019000914FF40043C4F20203019ABF
:1031E000916A009A4FEA82120A4342F005021A617C
:1031F00000BF4FF40043C4F202031B6903F0010354
:10320000DBB2002BF5D14FF40043C4F202035B693B
:10321000184602B0704700BFAFF30080AFF30080E4
:1032200082B001904FF40043C4F20203019A02F10C
:10323000050212784FEA0221019A02F10402127883
:103240000A431A644FF40043C4F20203019A02F1E4
:10325000030212784FEA0261019A02F10202127827
:103260004FEA02421143019A02F1010212784FEA39
:1032700002221143019A12780A435A644FF4004320
:10328000C4F202034FF6FF729A644FF40043C4F293
:1032900002034FF0FF32DA644FF40043C4F202033A
:1032A0004FF6FF721A654FF40043C4F202034FF069
:1032B000FF325A654FF40043C4F202034FF6FF7227
:1032C0009A654FF40043C4F202034FF0FF32DA650F
:1032D0004FF40043C4F202034FF000029A604FF42F
:1032E0000043C4F202034FF00002DA6002B07047FC
:1032F00000B583B0FDF7DCFA4FF40043C4F20203DB
:1033000003F5805303F114031B6801934FF400434A
:10331000C4F2020303F5805303F11403019A1A6007
:10332000019B03F04003002B15D04FF0200383F3E3
:103330001188FDF77DFA16484FF00001FEF7F0F80E
:1033400014484FF00001FEF733FCFDF791FA4FF0FF
:10335000000383F31188019B03F00103DBB2002B10
:1033600010D04FF0200383F31188FDF761FA0A486B
:103370004FF00001FEF7D4F8FDF77AFA4FF00003A2
:1033800083F31188FDF7C4FAFDF702F803B000BD1E
:10339000980D0020A40D00208C0D0020AFF30080BC
:1033A00000B583B040F68450C2F20000FFF708FA7F
:1033B00040F68453C2F200034FF000025A624FF00D
:1033C000000301933CE040F6B853C2F20003019AB7
:1033D0004FEA02129B1844F2F2525A60019B40F2EB
:1033E000F45202FB03F240F61863C2F20003D31852
:1033F0001A4640F6B853C2F2000301994FEA011190
:103400005B1803F108031A60019B03F1010303F049
:1034100003034FEA031240F6B853C2F20003D31875
:103420001A4640F6B853C2F2000301994FEA01115F
:103430005B1803F108035A60019B03F10103019338
:10344000019B032BBFD94FF0000301933CE040F6F2
:10345000F853C2F20003019A4FEA02129B184FF090
:1034600000025A60019B40F2F45202FB03F242F266
:10347000E853C2F20003D3181A4640F6F853C2F2DA
:10348000000301994FEA01115B1803F108031A6068
:10349000019B03F1010303F001034FEA031240F61D
:1034A000F853C2F20003D3181A4640F6F853C2F29A
:1034B000000301994FEA01115B1803F108035A60F8
:1034C000019B03F101030193019B012BBFD94FF431
:1034D0006053C4F201034FF46052C4F20102526817
:1034E00022F400025A604FF46053C4F202034FF416
:1034F0006052C4F20202126942F000721A614FF483
:103500006053C4F202034FF000021A614FF460539B
:10351000C4F202034FF46052C4F20202126B42F092
:1035200060621A6340F68453C2F200034FF0000257
:103530009A6240F68450C2F200004FF000014FF44E
:103540000042FFF71DFE00BF40F68450C2F20000AB
:103550004FF00001FFF73CFE034603F40043002B4D
:10356000F2D140F68450C2F200004FF00001FFF7A4
:103570002FFE034643F4006340F68450C2F200007D
:103580004FF000011A46FFF7FBFD4FF46053C4F201
:1035900002034FF46052C4F20202126B22F0606226
:1035A0001A6303B000BD00BFAFF30080AFF300802B
:1035B00000B585B001904FF0000303930EE040F694
:1035C000B853C2F20003039A4FEA02129B184FF05D
:1035D00000421A60039B03F101030393039B032B37
:1035E000EDD9019A40F6B853C2F20003D3624FF00E
:1035F000000303930EE040F6F853C2F20003039A6F
:103600004FEA02129B184FF480121A60039B03F1D9
:1036100001030393039B012BEDD9019A40F6F85364
:10362000C2F2000313634FF46053C4F202034FF479
:103630006052C4F20202126B42F060621A634FF4ED
:103640006053C4F202034FF46052C4F202021269E2
:1036500042F000721A614FF46053C4F202034FF05B
:1036600000021A614FF40043C4F202034FF4004217
:10367000C4F2020202F58052126842F0010203F520
:1036800080531A6000BF4FF40043C4F2020303F5F5
:1036900080531B6803F00103DBB2002BF3D14FF022
:1036A0003D004FF0D001FCF7FBFE01984FF0000108
:1036B000FFF78EFD034623F4006301984FF00001ED
:1036C0001A46FFF75DFD4FF40043C4F202034FF0CA
:1036D00000025A604FF40043C4F202034FF00002AC
:1036E0009A614FF40043C4F202034FF00002DA6122
:1036F000019B5B681B68002B06D142F22000C0F6DC
:103700000100FFF78DFD05E0019B5B681B68184613
:10371000FFF786FD4FF40043C4F202034FF00C02A2
:103720001A604FF40043C4F2020340F6B852C2F2EA
:10373000000203F5805303F10C031A604FF40043B9
:10374000C4F2020340F6F852C2F2000203F58053BD
:1037500003F110031A604FF40043C4F202034FF464
:103760000042C4F2020202F5805202F11402126811
:1037700003F5805303F114031A604FF40043C4F2BD
:10378000020303F5805303F11C034FF04102C0F222
:1037900001021A604FF40043C4F2020303F58052A1
:1037A0004FF48073C0F2022313604FF40043C4F25D
:1037B000020303F5805303F118034FF480121A60DB
:1037C00000BF4FF40043C4F2020303F5805303F13A
:1037D00018031B6803F48013002BF2D14FF400434D
:1037E000C4F2020303F5805303F1180342F202020C
:1037F000C0F220621A6005B000BD00BFAFF30080C8
:1038000000B585B001900091019B5B6A002B02D14D
:103810004FF0FF3335E04FF0200383F31188FCF7BE
:10382000C7FF019B1B6B0393039B1B6803F00143C2
:10383000002B08D0FCF7DCFF4FF0000383F3118866
:103840004FF0FF331DE0039B1B6843F08072039B26
:103850001A60039BDB681A46019B1A63FCF7C8FFDA
:103860004FF0000383F31188009B4FF000021A60B1
:10387000009B40F2F2525A60009B039A9A604FF00C
:103880000003184605B000BDAFF30080AFF3008021
:1038900000B585B0039002910192039B9B681B6861
:1038A000002B05DA41F61070C0F60100FDF7F0F8C4
:1038B000039B5A68039B1B68D21A019B9A4205D24C
:1038C000039B5A68039B1B68D31A0193019B002B2F
:1038D00015D0039B1A68039B9B689B68D3181A46F4
:1038E000029B11461A46019B084611461A460DF0E6
:1038F0002FFF039B1A68019BD218039B1A60019B40
:10390000184605B000BD00BFAFF30080AFF30080E4
:1039100000B583B00190019B9B681B68002B05DA02
:1039200041F63870C0F60100FDF7B2F84FF0200301
:1039300083F31188FCF73CFF019B9B68019A126896
:103940005A60019B9A684FF00003CFF21003136096
:103950004FF40043C4F2020303F5805303F1140350
:103960001B6803F4E003B3F5C00F15D14FF4004317
:10397000C4F2020303F5805303F114034FF0040271
:103980001A604FF40043C4F2020303F5805303F1BD
:1039900004034FF004021A60FCF72AFF4FF0000303
:1039A00083F3118803B000BDAFF30080AFF3008054
:1039B00000B585B0019000914FF0200383F311888A
:1039C000FCF7F6FE019BDB6A039341E0039B1B6857
:1039D0001A464FF40043C4F200031340002B2ED1CB
:1039E000039B1B6803F40073002B28D0039B1B6808
:1039F00003F48073002B22D0009B4FF000021A606A
:103A0000039B1B681A464FF00003C3F6FF73134075
:103A10004FEA1343A3F10402009B5A60009B039AF0
:103A20009A60039BDB681A46019BDA62FCF7E0FEB2
:103A30004FF0000383F311884FF0000314E0039B61
:103A40004FF000421A60039BDB681A46019BDA6262
:103A5000039B1B68002BB9DAFCF7CAFE4FF000038A
:103A600083F311884FF0FF33184605B000BD00BF47
:103A700000B585B0039002910192039B9B681B687F
:103A8000002B05DA41F66470C0F60100FDF700F87E
:103A9000039B5A68039B1B68D21A019B9A4205D26A
:103AA000039B5A68039B1B68D31A0193019B002B4D
:103AB00014D0039B1A68039B9B689B68D318029AD7
:103AC00011461A46019B084611461A460DF040FE63
:103AD000039B1A68019BD218039B1A60019B18462E
:103AE00005B000BDAFF30080AFF30080AFF30080FE
:103AF00000B583B00190019B9B681B68002B05DA21
:103B000041F68C70C0F60100FCF7C2FF4FF02003B5
:103B100083F31188FCF74CFE019B9B684FF0004239
:103B20001A604FF40043C4F2020303F5805303F11B
:103B300014031B6803F46023B3F5002F15D14FF471
:103B40000043C4F2020303F5805303F114034FF062
:103B500080021A604FF40043C4F2020303F580535D
:103B600003F108034FF080021A60FCF741FE4FF0AA
:103B7000000383F3118803B000BD00BFAFF30080E2
:103B800000B587B001904FF40043C4F202031B68F4
:103B9000059301984FF00101FFF71AFB01984FF0D0
:103BA0000101FFF715FB0346049301984FF0000154
:103BB000FFF70EFB03460393039B03F48053002B94
:103BC0002FD0049B03F03403242B06D0019B4FF02D
:103BD00000025A62019B5B6A57E001984FF00501B1
:103BE000FFF7F6FA03460293029B03F46073002B7F
:103BF00004D0059B43F48043059303E0059B23F425
:103C000080430593029B03F4A073002B04D0059B13
:103C100043F4006305932CE0059B23F400630593B4
:103C200027E0049B03F00403002B06D1019B4FF017
:103C300000025A62019B5B6A27E0039B03F4005376
:103C4000002B04D0059B43F48043059303E0059BC0
:103C500023F480430593039B03F48073002B04D06B
:103C6000059B43F40063059303E0059B23F4006385
:103C700005934FF40043C4F20203059A1A60019BB6
:103C80004FF001025A62019B5B6A184607B000BD03
:103C900000B585B001900B46ADF802304FF000033F
:103CA0000393BDF8023003F00803002B03D0039BFD
:103CB00043F080030393BDF8023003F00103DBB24D
:103CC000002B03D0039B43F020030393BDF8023085
:103CD00003F00203002B03D0039B43F04003039344
:103CE000BDF8023003F00403002B03D0039B43F420
:103CF000807303934FF0200383F31188FCF798FD42
:103D0000019B9A68039B1A43019B9A60019B03F1F4
:103D1000040318464FF00001FDF74AFFFCF7A8FD29
:103D20004FF0000383F3118805B000BDAFF30080AE
:103D300000B587B00190019B9B6F0593059B9B8904
:103D4000ADF81230059B1B88ADF81030059B9B88A1
:103D5000ADF80E30BDF8103003F00F03002B05D086
:103D6000BDF8103001981946FFF792FFBDF81030EA
:103D700003F48073002B21D04FF0200383F31188CC
:103D8000FCF756FD019B9B6843F40072019B9A600F
:103D9000019B03F1040318464FF00001FDF708FFF3
:103DA000FCF766FD4FF0000383F31188059B1B8829
:103DB0009BB223F480739AB2059B1A80BDF8103031
:103DC00003F02003002B12D04FF0200383F311885F
:103DD000FCF72EFDBDF80E30DBB201981946FEF758
:103DE0006FFFFCF745FD4FF0000383F31188BDF82A
:103DF000123003F08003002B3AD0BDF8103003F0EE
:103E00008003002B34D04FF0200383F31188FCF79C
:103E10000FFD019B03F134031846FEF761FA0346D8
:103E20000293029B002B19DA019B9B6843F0080266
:103E3000019B9A60019B03F1040318464FF00001B7
:103E4000FDF7B6FEBDF8123023F0C0039BB243F07D
:103E500040039BB29AB2059B9A8103E0029B9AB2FF
:103E6000059B9A80FCF704FD4FF0000383F3118853
:103E7000BDF8103003F04003002B28D04FF0200392
:103E800083F31188FCF7D4FC019B9B6843F010027C
:103E9000019B9A60019B03F1040318464FF0000157
:103EA000FDF786FEFCF7E4FC4FF0000383F3118876
:103EB000BDF8123023F040039AB2059B9A81059B0E
:103EC0001B889BB223F040039AB2059B1A8007B06F
:103ED00000BD00BFAFF30080AFF30080AFF3008000
:103EE00082B001904FF48053C4F201034FF480522A
:103EF000C4F20102928992B242F0800292B29A8197
:103F000002B07047AFF30080AFF30080AFF30080E2
:103F100008B5FCF7CDFC43F2D010C2F20000FFF769
:103F200007FFFCF7F5FCFCF733FA08BDAFF30080A0
:103F300008B543F2D010C2F200004FF0000143F682
:103F4000E162C0F60002FEF783FE43F2D013C2F234
:103F500000034FF48052C4F201029A6708BD00BF0B
:103F600082B001900091009B1A68019B1A60009B2F
:103F70005A68019B5A60009B9A68019B9A60009B5B
:103F8000DA68019BDA60009B1A69019B5A61009B09
:103F90005A69019B1A62009B9A69019B5A6202B09E
:103FA000704700BFAFF30080AFF30080AFF3008035
:103FB00000B583B001904FF46053C4F202034FF494
:103FC0006052C4F20202126B6FEA52226FEA42227E
:103FD0001A634FF46053C4F202034FF46052C4F208
:103FE0000202126D6FEA52226FEA42221A65019BA9
:103FF0004FF00000C4F202001946FFF7B1FF019B29
:1040000003F11C034FF48060C4F202001946FFF76D
:10401000A7FF019B03F138034FF40060C4F20200D4
:104020001946FFF79DFF019B03F154034FF44060D5
:10403000C4F202001946FFF793FF019B03F17003DE
:104040004FF48050C4F202001946FFF789FF019B2C
:1040500003F18C034FF4A050C4F202001946FFF79D
:104060007FFF019B03F1A8034FF4C050C4F202008C
:104070001946FFF775FF019B03F1C4034FF4E050AD
:10408000C4F202001946FFF76BFF019B03F1E00346
:104090004FF40050C4F202001946FFF761FF03B06D
:1040A00000BD00BFAFF30080AFF30080AFF300802E
:1040B00008B5FEF7ADFF08BDAFF30080AFF3008099
:1040C000704700BFAFF30080AFF30080AFF3008014
:1040D00082B00190019B4FF0060283F82220019BE1
:1040E00040F2DC521A84019B4FF0320283F82920FF
:1040F00002B07047AFF30080AFF30080AFF30080F1
:1041000000B587B00190009102AB40F68450C2F236
:10411000000019464FF03202FEF7B2FB0346002BB7
:1041200002D04FF0FD0325E0009B05930CE0059BBA
:104130005A68059B5B8902A9084611461A46FFF793
:10414000A7FB059B1B680593059B002BEFD102ABDA
:104150001846FEF7F5FB46F6F053C2F200031B8843
:1041600003F101039AB246F6F053C2F200031A803B
:104170004FF000035BB2184607B000BDAFF30080FC
:1041800000B589B0019002AB40F68450C2F2000045
:1041900019464FF00002FEF7EBFB0346002B55D10A
:1041A000039BADF81A30BDF81A304FF003001946E2
:1041B0004FF0030202F084FC03460593059B002B9D
:1041C00024D0059B07930CE0079B5A68079B5B89EB
:1041D00002A9084611461A46FFF74AFC079B1B68CE
:1041E0000793079B002BEFD102AB1846FEF720FC8C
:1041F00046F6F053C2F200035B8803F101039AB262
:1042000046F6F053C2F200035A801DE002AB184696
:10421000FEF70EFC46F6F053C2F200039B8903F151
:1042200001039AB246F6F053C2F200039A8146F6B1
:10423000F053C2F20003DB8803F101039AB246F6A1
:10424000F053C2F20003DA80059B01E04FF0000357
:10425000184609B000BD00BFAFF30080AFF3008087
:1042600000B583B00190019B4FF00002DA61019B21
:104270004FF06D0283F82A20019B4FF0730283F800
:104280002B20019A45F27123C0F600035361019A75
:1042900044F20113C0F6000393610198FFF718FF81
:1042A0004FF000035BB2184603B000BDAFF30080CF
:1042B00010B59CB0059040F63853C2F200039A69DD
:1042C00041F6C073C0F60103936100F041F901F0BB
:1042D0005FFC02F05DF802F023FA4FF000004FF0AF
:1042E00000010DF0ADF8059B002B24D0059B1A931F
:1042F0004FF000031B9311E01A9B1A681B9BD31805
:104300001A7843F20053C2F200031B995B1803F1C1
:104310002003DA701B9B03F101031B931B9B052BEE
:10432000EAD91A9B5B6808931A9BDB6807931A9B70
:104330009B6806933CE043F20053C2F200034FF047
:10434000C20283F8232043F20053C2F200034FF06D
:10435000AF0283F8242043F20053C2F200034FF06F
:10436000510283F8252043F20053C2F200034FF0BC
:10437000030283F8262043F20053C2F200034FF0F9
:10438000CF0283F8272043F20053C2F200034FF01C
:10439000460283F828204AF6C003C1F2014308937D
:1043A0004AF6C003C0F2011307936FF07F430693F0
:1043B00040F68450C2F2000042F23011C0F6010112
:1043C000FEF726FA08A906AA07AC4FF000030093EF
:1043D00044F26123C0F60003019341F2C123C0F609
:1043E0000103029343F20050C2F20000234602F0A0
:1043F0009FF943F20050C2F2000002F081FA43F24A
:104400000050C2F2000002F08BFA0FAB03F114036C
:1044100014934FF00003129341F2883315930FABBE
:1044200018460DF06DF80FAB03F114020CAB1046FB
:1044300019464FF00102FDF72BFB09AB4348194623
:104440004FF00202FDF724FB4FF00300FDF750FB95
:104450004FF00200FCF73CFF00E000BF4FF0FF30E0
:10446000FDF7CEFB03461993199B03F00103DBB262
:10447000002B35D040F68450C2F20000FEF7F0FA6F
:104480000346189343F20053C2F2000393F8293015
:1044900003F01003002B02D04FF0010301E04FF0B6
:1044A0000003189A93421BD0189B002B0CD046F6A1
:1044B0008110C0F6000043F20051C2F200014FF03B
:1044C00000020CF03DFF0BE046F6E110C0F60000E4
:1044D00043F20051C2F200014FF000020CF030FF35
:1044E000199B03F00203002BB7D023E0179B5B68F6
:1044F0001693169B9B899BB218460AF079FE0346D9
:10450000B3F5006F03D040F6060293420DD143F29B
:104510000053C2F200031B69179843F20051C2F224
:10452000000198470346002B03D0179802F0E8FDDE
:1045300000E000BF43F20050C2F20000FFF720FE8F
:1045400003461793179B002BD0D186E7A40D0020BC
:10455000704700BFAFF30080AFF30080AFF300807F
:1045600000B583B001900B468DF803304FF000008A
:104570004FF00C01FDF7FCFF0246019B1A60019B06
:104580001B68002B11D146F6F053C2F20003B3F8BA
:10459000423103F101039AB246F6F053C2F200032E
:1045A000A3F842214FF0FF0332E0019B1A689DF807
:1045B000033010461946FCF793FF46F6F053C2F25B
:1045C0000003B3F83E3103F101039AB246F6F0530B
:1045D000C2F20003A3F83E2146F6F053C2F20003F4
:1045E000B3F8402146F6F053C2F20003B3F83E316F
:1045F0009A420BD246F6F053C2F20003B3F83E21C2
:1046000046F6F053C2F20003A3F840214FF0000336
:104610005BB2184603B000BDAFF30080AFF300807B
:1046200000B583B00190019B1B681846FEF720F887
:10463000019B4FF000021A6046F6F053C2F20003ED
:10464000B3F83E3103F1FF339AB246F6F053C2F2AB
:104650000003A3F83E2103B000BD00BFAFF300800C
:1046600000B583B00190019B1B681846FDF700F868
:1046700003B000BDAFF30080AFF30080AFF3008064
:1046800000B585B0019000914FF0200383F31188AD
:10469000FCF78EF8009B002B01D0009B01E04FF04F
:1046A000FF33029340F62853C2F20003DB68039302
:1046B000019B1B6818460299FCF77AFF0346002B02
:1046C00003D04FF0FF33039308E040F62853C2F2C3
:1046D0000003DB681A46039BD31A0393FCF788F8A0
:1046E0004FF0000383F31188039B184605B000BD0B
:1046F00082B00190019B1B68002B0CBF002301239B
:10470000184602B0704700BFAFF30080AFF30080DF
:1047100082B00190019B4FF000021A6002B0704716
:1047200000B583B001900091009B03F10A034FEAAA
:1047300083034FF000001946FDF71AFF0246019B64
:104740001A60019B1B68002B11D146F6F053C2F290
:104750000003B3F84E3103F101039AB246F6F05369
:10476000C2F20003A3F84E214FF0FF031BE0019BB0
:104770001A68019B1B6803F1280310461946009A2A
:10478000FDF776FA46F6F053C2F20003B3F84A3169
:1047900003F101039AB246F6F053C2F20003A3F804
:1047A0004A214FF000035BB2184603B000BD00BFC2
:1047B00000B583B00190019B1B689B69002B13D04F
:1047C00046F6F053C2F20003B3F84E3103F1010391
:1047D0009AB246F6F053C2F20003A3F84E21019BB1
:1047E0001B681846FDF77CFA019B1B681846FDF70D
:1047F0003FFF019B4FF000021A6046F6F053C2F2F1
:104800000003B3F84A3103F1FF339AB246F6F0538E
:10481000C2F20003A3F84A2103B000BDAFF3008049
:1048200000B583B001900091019B1A68009B10466F
:1048300019464FF0FF32FDF793FA03B000BD00BFF9
:1048400000B583B001900091019B1A68009B10464F
:1048500019464FF00002FDF783FA0346B3F1FF3F1C
:1048600011D146F6F053C2F20003B3F84E3103F112
:1048700001039AB246F6F053C2F20003A3F84E21A8
:104880004FF0FF0301E04FF000035BB2184603B0A6
:1048900000BD00BFAFF30080AFF30080AFF3008036
:1048A00000B587B00390029101924FF0200383F38B
:1048B0001188FBF77DFF019B002B01D0019B01E0DC
:1048C0004FF0FF33049340F62853C2F20003DB6835
:1048D0000593039B1B6818460299049AFDF7C0FADA
:1048E0000346002B03D04FF0FF33059308E040F65A
:1048F0002853C2F20003DB681A46059BD31A0593BE
:10490000FBF776FF4FF0000383F31188059B1846F1
:1049100007B000BDAFF30080AFF30080AFF30080BD
:1049200000B583B001900091019B1B681846009967
:104930004FF00002FDF774FA0346B3F1FF3F02D1D6
:104940004FF0FF3301E04FF00003184603B000BD05
:1049500082B00190019B1B68002B0CBF0023012338
:10496000184602B0704700BFAFF30080AFF300807D
:1049700082B00190019B4FF000021A6002B07047B4
:1049800000B589B00590049103920293029B03F154
:10499000AF0343F0070303F1010307930798FDF703
:1049A00077FD03460693069B002B02D14FF00003D0
:1049B00008E00A9A049B0399009106980799FCF76E
:1049C0005FFC0346184609B000BD00BFAFF300808E
:1049D00000B583B0019043F23053C2F20003019A54
:1049E0004FEA02129B181B68002B16D043F230537B
:1049F000C2F20003019A4FEA02129B181B68184684
:104A000002F07EFB43F23053C2F20003019A4FEAF8
:104A100002129B184FF000021A6043F23053C2F2A8
:104A20000003019A4FEA02129B1803F108034FF0AA
:104A300000029A7103B000BDAFF30080AFF30080B5
:104A400000B583B04FF000038DF8073060E09DF8AB
:104A5000072043F23053C2F200034FEA02129B18C0
:104A600003F108039B798DF806309DF80630002B82
:104A700048D09DF8072043F23053C2F200034FEABA
:104A800002115B1803F10803DB7903F10103D9B2CA
:104A900043F23053C2F200034FEA02129B1803F1B3
:104AA00008030A46DA719DF8072043F23053C2F238
:104AB00000034FEA02129B1803F10803DB79EF2B86
:104AC0001BD89DF8072043F23053C2F200034FEA8F
:104AD00002129B1803F108039B79012B12D19DF858
:104AE000072043F23053C2F200034FEA02129B1830
:104AF00003F10803DB79012B04D99DF80730184630
:104B0000FFF766FF9DF8073003F101038DF80730CA
:104B10009DF80730092B9AD903B000BDAFF3008090
:104B200000B587B001900B468DF803304FF00A03B3
:104B30008DF817304FF00A038DF816304FF00A0346
:104B40008DF815304FF000038DF814304FF000034E
:104B50008DF813304FF000038DF812304FF00A0338
:104B60008DF811304FF000038DF810304FF0000336
:104B70008DF81430C1E09DF8142043F23053C2F296
:104B800000034FEA02129B1803F108039B798DF88A
:104B90000F309DF915300A2B08D19DF80F30002BEE
:104BA00004D19DF814308DF81530A0E09DF80F3039
:104BB000002B00F09C809DF80F30012B05D09DF854
:104BC0000F30022B01D0FBF783FB019B002B12D08F
:104BD000019B1A689DF8141043F23053C2F200038F
:104BE0004FEA01115B1803F104031B689A4202D1DA
:104BF0009DF8143010E19DF80F30012B51D19DF834
:104C0000142043F23053C2F200034FEA02129B1801
:104C10001B68002B22D09DF8142043F23053C2F2BF
:104C200000034FEA02129B1803F10803DB799DF899
:104C300010209A425BD89DF814308DF811309DF801
:104C4000142043F23053C2F200034FEA02129B18C1
:104C500003F10803DB798DF8103048E09DF814204B
:104C600043F23053C2F200034FEA02129B1803F1E1
:104C70000803DB799DF813209A4238D89DF8143048
:104C80008DF817309DF8142043F23053C2F2000320
:104C90004FEA02129B1803F10803DB798DF81330F9
:104CA00025E09DF80F30022B21D19DF8142043F20E
:104CB0003053C2F200034FEA02129B1803F10803BB
:104CC000DB799DF812209A4211D89DF814308DF8A6
:104CD00016309DF8142043F23053C2F200034FEA1D
:104CE00002129B1803F10803DB798DF812309DF84E
:104CF000143003F101038DF814309DF81430092BA2
:104D00007FF639AF9DF8033003F00203002B09D181
:104D10009DF915300A2B08D19DF8033003F00103EB
:104D2000002B02D14FF0FF0376E09DF91530092BDF
:104D300004DC9DF815308DF8143036E09DF91630FE
:104D4000092B12DC9DF816308DF814309DF81420D4
:104D500043F23053C2F200034FEA02129B181B6861
:104D6000002B17D0FBF7B4FA14E09DF91730092B8C
:104D700004DC9DF817308DF814300BE09DF91130EC
:104D8000092B04DC9DF811308DF8143002E04FF04F
:104D9000FF0341E09DF81430092B01D9FBF798FA85
:104DA0009DF814301846FFF713FE9DF81430092BB8
:104DB00001D9FBF78DFA9DF8142043F23053C2F26B
:104DC00000034FEA02129B1803F108039B79002BA2
:104DD00001D0FBF77DFA019B002B0DD09DF814103C
:104DE000019B1A6843F23053C2F200034FEA0111EB
:104DF0005B1803F104031A609DF8142043F230534A
:104E0000C2F200034FEA02129B1803F108034FF0AD
:104E10000002DA719DF814305BB2184607B000BD8D
:104E200000B587B00390029101920093029B5B68EA
:104E30000593039B93F82230062B01D0FBF748FA29
:104E4000059A009B11461A464FF006030846114684
:104E50001A460CF07DFC059B03F10602019B1146EE
:104E60001A464FF00603084611461A460CF070FC2D
:104E7000059B4FF0000242F008021A734FF0000247
:104E80005A73039B9B6903980299984703461846F7
:104E900007B000BDAFF30080AFF30080AFF3008038
:104EA00000B587B00390029101928DF80330039B07
:104EB00093F82230062B01D0FBF70AFA029B002B55
:104EC00012D0029B1B68002B0ED0029B1B68184659
:104ED000039909F0F5FA0346002B05D1029B1B68E4
:104EE00003F0F003E02B02D14FF0F20371E09DF8E4
:104EF000033002981946FFF713FE03468DF817306A
:104F00009DF91730002B02DA9DF8173061E09DF90A
:104F1000172043F23053C2F200034FEA02129B18EB
:104F200003F108034FF002029A719DF917304FEA1E
:104F3000031303F1080243F23053C2F20003D21804
:104F4000019B11461A464FF00603084611461A46C1
:104F50000CF0FEFB9DF9172043F23053C2F2000320
:104F60004FEA02129B1803F108034FF00002DA71B6
:104F70009DF9172043F23053C2F200034FEA0212A8
:104F80009B181B68002B22D09DF9172043F2305349
:104F9000C2F200034FEA02129B181B6804939DF9AA
:104FA000172043F23053C2F200034FEA02129B185B
:104FB0004FF000021A60039B03F123030398049946
:104FC0001A46019BFFF72CFF049802F099F84FF066
:104FD00000035BB2184607B000BD00BFAFF300800E
:104FE00000B58BB0039002910192039B002B02D17C
:104FF000FBF76EF936E1019B5B89292B1DD846F63C
:10500000F053C2F200035B8C03F101039AB246F63F
:10501000F053C2F200035A8446F6F053C2F2000382
:10502000DB8B03F101039AB246F6F053C2F20003A0
:10503000DA83019802F064F814E1019B5B6808933D
:10504000089B03F10E030793079B1B889BB2B3F5E4
:10505000807F0CD1079B1B79062B08D1079B5B79BE
:10506000042B04D1079B5B889BB2082B1DD046F60E
:10507000F053C2F200031B8D03F101039AB246F60E
:10508000F053C2F200031A8546F6F053C2F2000351
:10509000DB8B03F101039AB246F6F053C2F2000330
:1050A000DA83019802F02CF8DCE046F6F053C2F205
:1050B00000035B8B03F101039AB246F6F053C2F290
:1050C00000035A83079B03F10E0306AA11461A46F2
:1050D0004FF00403084611461A460CF039FB079BB3
:1050E00003F1180305AA11461A464FF004030846B7
:1050F00011461A460CF02CFB039B03F10403002B12
:1051000003D0039B5B68002B04D14FF000038DF8A4
:10511000273008E0059A039B5B689A4214BF00237E
:1051200001238DF82730079B03F108029DF82730F3
:10513000002B02D04FF0010301E04FF0020306A95B
:105140000398FFF7ADFE079BDB889BB2B3F5807F2A
:1051500004D0B3F5007F00F0818071E09DF8273026
:10516000002B68D04FF002000AF042F803461A46BE
:10517000079BDA80079B03F11802079B03F10E03DC
:1051800011461A464FF00403084611461A460CF021
:10519000DFFA079B03F10E02039B03F104031146A0
:1051A0001A464FF00403084611461A460CF0D0FA8E
:1051B000039B93F82230062B01D0FBF789F8079B5D
:1051C00003F11202079B03F1080311461A464FF040
:1051D0000603084611461A460CF0BAFA089A079BCD
:1051E00003F1080311461A464FF00603084611461C
:1051F0001A460CF0ADFA079B03F10802029B114618
:105200001A464FF00603084611461A460CF0A0FA5B
:10521000089B03F10602029B11461A464FF0060353
:10522000084611461A460CF093FA039B9B690398B3
:105230000199984713E0039B03F10403002B0EE050
:1052400046F6F053C2F200039B8D03F101039AB2BC
:1052500046F6F053C2F200039A8500E000BF0198C1
:1052600001F04EFF0BB000BDAFF30080AFF3008044
:1052700000B589B003900291019202984FF00E019F
:1052800001F0AEFE0346002B0FD046F6F053C2F2FB
:1052900000035B8903F101039AB246F6F053C2F2B0
:1052A00000035A814FF0FE03B7E04FF0000307936D
:1052B000019B1B681846039909F002F90346002B6D
:1052C00005D042F24013C0F6010307939BE0019B17
:1052D0001B6803F0F003E02B1FD14FF001038DF8A2
:1052E00014304FF000038DF815304FF05E038DF849
:1052F0001630019B03F101031B7803F07F03DBB23F
:105300008DF81730019B9B788DF81830019BDB7866
:105310008DF8193005AB079375E0019B1A68039B64
:105320005B685A40039B9B681340002B1AD0019B7B
:105330001B684FEA03434FEA13434FF6A9629342B7
:1053400010D0039B03F10C03002B08D0039BDB68F8
:10535000002B04D0039B03F10C03019302E04FF0F8
:10536000FC035AE043F2D053C2F200031B781A4602
:1053700043F23053C2F200034FEA02129B1803F1CA
:1053800008039B79022B37D1019B1A6843F2D05353
:10539000C2F200031B78194643F23053C2F20003F5
:1053A0004FEA01115B1803F104031B689A4223D1F1
:1053B00046F6F053C2F20003DB8D03F101039AB20B
:1053C00046F6F053C2F20003DA85039B03F1230291
:1053D00043F2D053C2F200031B784FEA031303F1E8
:1053E000080143F23053C2F20003CB18039802992C
:1053F000FFF716FD034610E003980199029A00F0AA
:1054000017F8034609E0039B03F12303039802996D
:105410001A46079BFFF704FD03465BB2184609B026
:1054200000BD00BFAFF30080AFF30080AFF300809A
:1054300000B58BB0039002910192039B03F123030B
:1054400006934FF0FF038DF82730029B1B68184628
:10545000039909F035F80346002B0CD1029B1B6819
:1054600003F0F003E02B06D0029B002B03D0029B3D
:105470001B68002B02D14FF0F20336E102984FF087
:105480000101FFF74DFB03468DF817309DF91730EA
:10549000002B12DA019B002B0CD046F6F053C2F21F
:1054A00000039B8C03F101039AB246F6F053C2F25B
:1054B00000039A849DF8173017E19DF9172043F2F5
:1054C0003053C2F200034FEA02129B1803F10803A3
:1054D0009B79002B0DD19DF9172043F23053C2F276
:1054E00000034FEA02129B1803F108034FF0010278
:1054F0009A719DF9172043F23053C2F200034FEA2C
:1055000002129B1803F108039B79012B0FD09DF920
:10551000172043F23053C2F200034FEA02129B18E5
:1055200003F108039B79022B01D0FAF7D1FE9DF914
:10553000172043F23053C2F200034FEA02129B18C5
:1055400003F108039B79012B02D0019B002B0CD1A6
:105550000398029900F0ACF903468DF82730019BBF
:10556000002B02D19DF82730BFE0019B002B01D119
:10557000FAF7AEFE9DF9172043F23053C2F2000352
:105580004FEA02129B1803F108039B79022B1AD1F0
:105590009DF8172043F2D053C2F200031A709DF910
:1055A00017304FEA031303F1080243F23053C2F2FB
:1055B0000003D31803980199069AFFF731FC0346BC
:1055C0008DF827308FE09DF9172043F23053C2F257
:1055D00000034FEA02129B1803F108039B79012B89
:1055E00040F081804FF000030793019B089316E081
:1055F000089B5A89089B1B899A4205D1089B1B6806
:10560000002B01D0FAF764FE089B1B7B012B03D013
:105610004FF00103079305E0089B1B680893089B64
:10562000002BE5D1079B002B1BD0089B1B894FF05B
:10563000030019464FF0000201F042FA03460893B6
:10564000089B002B12D00898019901F049FE0346EF
:10565000002B0BD0089801F053FD4FF00003089386
:1056600004E0019B0893089801F0EAFD089B002BD9
:1056700028D09DF9172043F23053C2F200034FEABD
:1056800002129B181B68002B0CD09DF9172043F2C7
:105690003053C2F200034FEA02129B181B681846EF
:1056A00001F02EFD9DF9172043F23053C2F20003A2
:1056B0004FEA02129B18089A1A604FF000038DF807
:1056C000273010E046F6F053C2F200039B8C03F142
:1056D00001039AB246F6F053C2F200039A844FF0E7
:1056E000FF038DF827309DF827305BB218460BB0CA
:1056F00000BD00BFAFF30080AFF30080AFF30080C8
:1057000000B589B003900291019200934FF000031D
:105710008DF81F304FF003004FF02A014FF00002C8
:1057200001F0CEF903460693069B002B0FD146F6F7
:10573000F053C2F200039B8C03F101039AB246F6C8
:10574000F053C2F200039A844FF0FF03AAE0069BD5
:105750005B89292B01D8FAF7BBFD069B5B68059393
:10576000059B03F10E030493BDF83430184609F08D
:105770003FFD03461A46049BDA80039B93F82230D0
:10578000062B01D0FAF7A4FD049B03F10802009B4D
:1057900011461A464FF00603084611461A460BF00A
:1057A000D7FF049B03F112020B9B11461A464FF0E0
:1057B0000603084611461A460BF0CAFF059A019BDC
:1057C00011461A464FF00603084611461A460BF0DA
:1057D000BFFF059B03F10602029B11461A464FF0DC
:1057E0000603084611461A460BF0B2FF049B03F16C
:1057F0000E020A9B11461A464FF004030846114652
:105800001A460BF0A5FF049B03F118020C9B1146EE
:105810001A464FF00403084611461A460BF098FF4B
:10582000049B4FF000021A704FF0000242F0010298
:105830005A70049B4FF0000242F008029A704FF039
:105840000002DA70049B4FF006021A71049B4FF0BD
:1058500004025A71059B4FF0000242F008021A73CD
:105860004FF0000242F006025A73039B9B690398B3
:105870000699984703468DF81F3046F6F053C2F25A
:1058800000031B8B03F101039AB246F6F053C2F2F8
:1058900000031A83069801F033FC4FF000030693CF
:1058A0009DF81F305BB2184609B000BDAFF3008011
:1058B00010B586B005900491059B03F12302059B6A
:1058C00003F12304059B03F10403009342F25013F8
:1058D000C0F601030193049B02934FF0010303936D
:1058E0000598114642F24012C0F601022346FFF726
:1058F00007FF0346184606B010BD00BFAFF3008097
:1059000000B587B0019000914FF00E03ADF816304E
:10591000019B5B890E2B1AD846F6F053C2F20003A6
:105920001B8D03F101039AB246F6F053C2F2000355
:105930001A8546F6F053C2F20003DB8B03F1010334
:105940009AB246F6F053C2F20003DA8360E0019B9C
:105950005B680493049B1A7B5B7B4FEA032313432E
:10596000ADF80E30BDF80E30082B03D0B3F5C16F83
:105970001DD02CE0009B93F8293003F02003002B6E
:1059800043D0BDF81630C3F100039BB29BB21BB2EB
:105990000198194601F024FB0346002B02D0FAF7C8
:1059A00097FC35E00198009908F03AFA2AE0009B4C
:1059B00093F8293003F02003002B28D0009B03F13B
:1059C000230300981946019AFFF70AFB1AE046F6EE
:1059D000F053C2F200031B8D03F101039AB246F6A5
:1059E000F053C2F200031A8546F6F053C2F20003E8
:1059F000DB8B03F101039AB246F6F053C2F20003C7
:105A0000DA8305E04FF0000307E000BF00E000BFCD
:105A1000019801F075FB4FF000035BB2184607B028
:105A200000BD00BFAFF30080AFF30080AFF3008094
:105A300008B501F09DFEFEF78BFD00F0A9F800F01F
:105A4000A7FC00F06DFE0BF0A3FB09F0A1FC08BD64
:105A500000B585B0019043F62843C2F200031B68ED
:105A6000019A9A4201D2FAF733FC43F62C43C2F270
:105A700000031B68019A9A4201D3FAF729FC019BA3
:105A80001B79002B01D0FAF723FC019B1B88B3F58F
:105A9000C86F01D9FAF71CFC43F62843C2F2000391
:105AA0001A68019B1B88D3180393019A039B9A429F
:105AB00030D0039B1B79002B2CD143F62C43C2F230
:105AC00000031B68039A9A4224D043F63043C2F283
:105AD00000031A68039B9A4205D143F63043C2F291
