:020000040800F2
:1000000000040020E1010008C1020008C10200084C
:10001000C1020008C1020008C1020008C1020008B4
:10002000C1020008C1020008C10200081103000853
:10003000C1020008C1020008C1020008E102000874
:10004000C1020008C1020008C1020008C102000884
:10005000C1020008C1020008C1020008C102000874
:10006000C1020008C1020008C1020008C102000864
:10007000C1020008C1020008C1020008C102000854
:10008000C1020008C1020008C1020008C102000844
:10009000C1020008C1020008C1020008C102000834
:1000A000C1020008C1020008C1020008C102000824
:1000B000C1020008C1020008C1020008C102000814
:1000C000C1020008C1020008C1020008C102000804
:1000D000C1020008C1020008C1020008C1020008F4
:1000E000C1020008C1020008C1020008C1020008E4
:1000F000C1020008C1020008C1020008C1020008D4
:10010000C1020008C1020008C1020008C1020008C3
:10011000C1020008C1020008C1020008C1020008B3
:10012000C1020008C1020008C1020008C1020008A3
:10013000C1020008C1020008C1020008C102000893
:10014000C1020008C1020008C1020008C102000883
:10015000C1020008C1020008C1020008C102000873
:10016000C1020008C1020008C1020008C102000863
:10017000C1020008C1020008C1020008C102000853
:04018000C1020008B0
:10019000704700BFAFF30080AFF30080AFF3008083
:1001A000FEE700BFAFF30080AFF30080AFF3008045
:1001B00084B003900291019206E0039B019A1A60B9
:1001C000039B03F104030393039A029B9A42F4D323
:1001D00004B07047AFF30080AFF30080AFF300804E
:1001E00072B640F60004C2F2000484F309884FF0AE
:1001F000020484F31488BFF36F8F01F071FB40F2A7
:100200000000C2F2000040F20041C2F200014FF0D3
:100210005532FFF7CDFF40F20040C2F2000040F639
:100220000001C2F200014FF05532FFF7C1FF41F665
:10023000B045C0F6000540F60004C2F2000405E037
:100240002B68236004F1040405F1040540F6000363
:10025000C2F200039C42F3D340F60000C2F2000059
:1002600040F6A861C2F200014FF00002FFF7A0FFC4
:10027000FFF78EFF40F28414C0F6000403E0236809
:10028000984704F1040440F28413C0F600039C4232
:10029000F5D301F055FB40F28414C0F6000403E0EE
:1002A0002368984704F1040440F28413C0F6000365
:1002B0009C42F5D3FFF774FFAFF30080AFF30080EB
:1002C000FEE700BFAFF30080AFF30080AFF3008024
:1002D00072B6FEE7AFF30080AFF30080AFF30080AB
:1002E00008B500F08DFA4FF0200383F3118800F079
:1002F00047FA00F075F900F063FA4FF0000383F35A
:10030000118800F0ADFA00F043F808BDAFF30080AB
:1003100010B483B0EFF309840194019B03F120032F
:100320000193019B83F309884FF0000383F3118845
:1003300003B010BC704700BFAFF30080AFF3008084
:1003400008B54FF46D43CEF200034FF000029A60FF
:100350004FF46D43CEF200034FF44072C0F2FA52F4
:10036000DA604FF007004FF0100100F099F84FF0FD
:100370000A004FF4007100F093F84FF00B004FF0BB
:10038000800100F08DF808BDAFF30080AFF300806E
:1003900010B483B04FF0200383F311884FF46D4302
:1003A000CEF200035B6803F40063002B49D0EFF347
:1003B00009840194019BA3F120030193019B83F322
:1003C0000988019B4FF08072DA6140F63053C2F227
:1003D00000039B6993F82330002B11D040F6305373
:1003E000C2F200031B689A6840F63053C2F2000361
:1003F0009B699B689A4294BF00230123DBB210E003
:1004000040F63053C2F200031B689A6840F630533E
:10041000C2F200039B699B689A4234BF0023012308
:10042000DBB2002B06D0019A40F25143C0F6000324
:1004300093610AE0019A40F25C43C0F600039361C5
:1004400003E04FF0000383F3118803B010BC704742
:1004500000F056F900F0E4FD00F072F900DF00BF93
:1004600003460A462DE9F04FC2F80CD0D3F80CD061
:10047000BDE8F08FAFF30080AFF30080AFF30080F2
:1004800008B500F05DF94FF0000383F311882846AA
:10049000A04700F0CDFE08BDAFF30080AFF30080B1
:1004A00010B485B001900091019B03F003034FEA63
:1004B000C30303934FF46D43CEF20003019A4FEA56
:1004C00092004FF46D42CEF2000201994FEA910181
:1004D00001F1060152F821201146039A4FF0FF0462
:1004E00004FA02F26FEA02021140039A009C04FA35
:1004F00002F2114300F1060243F8221005B010BCCD
:10050000704700BFAFF30080AFF30080AFF300800F
:1005100082B0019040F63053C2F200039A6941F66E
:100520008013C0F600039361FEE700BFAFF30080C5
:1005300000B583B0FFF704FF00F04AFB00F060FA5B
:1005400000F0E6FE00F054FF00F0EAF940F6C000CB
:10055000C2F200004FF0400100F082FD024640F67A
:100560003053C2F200039A6140F63053C2F20003E6
:100570009B694FF0010283F8202040F63053C2F20D
:1005800000039A6940F20043C2F20003D36100F015
:100590009FF84FF0000383F3118862B640F63053A2
:1005A000C2F200039A6941F68813C0F60003936112
:1005B00040F21153C0F600034FF00002009240F6E3
:1005C0000000C2F200004FF0C0014FF0010200F045
:1005D000E7FD03B000BD00BFAFF30080AFF30080C4
:1005E00000B583B000F06CF940F63053C2F200035E
:1005F0009B6993F82330002B0BD040F63053C2F2A6
:1006000000039B6993F8232002F1FF32D2B283F8F2
:10061000232040F63053C2F200039B695A6A02F16C
:1006200001025A6240F62053C2F20003DB6803F174
:10063000010240F62053C2F20003DA6040F6205374
:10064000C2F200031A6840F62053C2F200039A4235
:1006500039D040F62053C2F200031B689A6802F1B9
:10066000FF329A6025E0019BDB680093019B4FF00D
:100670000002DA60019B1A6840F62053C2F20003C0
:100680005360019B1A6840F62053C2F200031A60BF
:1006900000F096F84FF0000383F31188019B1A696C
:1006A000009B104698474FF0200383F3118800F019
:1006B00067F840F62053C2F200031B680193019BC8
:1006C0009B68002BCFD003B000BD00BFAFF300800C
:1006D00008B540F60C13C2F200031B68002B06D1CC
:1006E00040F61013C2F200031B68002B05D041F640
:1006F000A010C0F6000000F073F908BDAFF3008051
:1007000008B540F60C13C2F200031B68002B06D19B
:1007100040F61013C2F200031B68002B05D041F60F
:10072000A810C0F6000000F05BF940F61013C2F20A
:1007300000034FF001021A6008BD00BFAFF3008054
:1007400008B540F60C13C2F200031B68002B06D15B
:1007500040F61013C2F200031B68002B05DC41F6C3
:10076000B010C0F6000000F03BF940F61013C2F2E2
:1007700000034FF000021A6008BD00BFAFF3008015
:1007800008B540F60C13C2F200031B68002B06DD0F
:1007900040F61013C2F200031B68002B05D041F68F
:1007A000B810C0F6000000F01BF940F61013C2F2BA
:1007B00000034FF001021A6008BD00BFAFF30080D4
:1007C00008B540F60C13C2F200031B68002B06DDCF
:1007D00040F61013C2F200031B68002B05DC41F643
:1007E000C010C0F6000000F0FBF840F61013C2F293
:1007F00000034FF000021A6008BD00BFAFF3008095
:1008000008B54FF0200383F3118840F60C13C2F2B1
:1008100000031B68002B06DB40F61013C2F2000336
:100820001B68002B05D041F6C810C0F6000000F090
:10083000D7F840F60C13C2F200031B6803F1010263
:1008400040F60C13C2F200031A604FF0000383F36A
:10085000118808BDAFF30080AFF30080AFF30080D4
:1008600008B54FF0200383F3118840F60C13C2F251
:1008700000031B68002B06DD40F61013C2F20003D4
:100880001B68002B05D041F6D010C0F6000000F028
:10089000A7F840F60C13C2F200031B6803F1FF3205
:1008A00040F60C13C2F200031A604FF0000383F30A
:1008B000118808BDAFF30080AFF30080AFF3008074
:1008C00008B540F60C13C2F200031B68002B06DBD0
:1008D00040F61013C2F200031B68002B05DC41F642
:1008E000D810C0F6000000F07BF808BDAFF3008020
:1008F00008B540F60C13C2F200031B68002B06D1AA
:1009000040F61013C2F200031B68002B05DC41F611
:10091000E010C0F6000000F063F808BDAFF30080FF
:1009200040F61413C2F200034FF040021A6040F682
:100930001413C2F20003014A5A6070471C090020D8
:1009400082B0019040F61413C2F200035A6840F6D8
:100950002053C2F20003DB68136040F61413C2F2A6
:1009600000035A6840F63053C2F200039B6953609B
:1009700040F61413C2F200035B68019A926A9A600F
:1009800040F61413C2F200035B68019A92F820202B
:100990001A7340F61413C2F200035B6803F11002ED
:1009A00040F61413C2F200035A6040F61413C2F268
:1009B00000035A68054B9A4205D340F61413C2F25D
:1009C0000003034A5A6002B0704700BF1C0D0020AC
:1009D0001C090020AFF30080AFF30080AFF300806C
:1009E00000B583B0019040F61C53C2F20003019A97
:1009F0001A60FFF76DFC03B000BD00BFAFF30080CD
:100A000040F62053C2F2000340F62052C2F2000228
:100A10005A6040F62053C2F200035A6840F6205351
:100A2000C2F200031A6040F62053C2F200034FF0F6
:100A3000FF329A6040F62053C2F200034FF00002EA
:100A4000DA607047AFF30080AFF30080AFF300804F
:100A500000B587B00390029101920093FFF730FF39
:100A6000039B002B05D0019B002B02D0029B002B87
:100A700005D141F6F010C0F60000FFF7B1FF039B6F
:100A8000009A1A61039B019ADA6040F62053C2F281
:100A900000031B68059307E0059B9B68029AD31A25
:100AA0000293059B1B680593059B9A68029B9A42DB
:100AB000F2D3039B059A1A60039B1B685A68039B39
:100AC0005A60039B5B68059A03995160059A5268C6
:100AD0001A60039B029A9A60059A40F62053C2F26C
:100AE00000039A4205D0059B9A68029BD21A059B87
:100AF0009A6007B000BD00BFAFF30080AFF3008085
:100B000000B583B00190FFF7DBFE019B002B05D100
:100B100041F60020C0F60000FFF762FF019BDB6892
:100B2000002B05D141F61020C0F60000FFF758FF5A
:100B3000019B1A6840F62053C2F200039A4208D083
:100B4000019B1B68019A12689168019A92688A1841
:100B50009A60019B5B68019A12681A60019B1B688E
:100B6000019A52685A60019B4FF00002DA6003B0AC
:100B700000BD00BFAFF30080AFF30080AFF3008093
:100B800084B00190019B1B680393039B1A68019B2F
:100B90001A60019B1B68019A5A60039B184604B0B7
:100BA000704700BFAFF30080AFF30080AFF3008069
:100BB00082B00190019B5B68019A12681A60019BE8
:100BC0001B68019A52685A60019B184602B0704730
:100BD00040F63053C2F2000340F63052C2F2000237
:100BE0005A6040F63053C2F200035A6840F6305360
:100BF000C2F200031A6040F63053C2F200034FF015
:100C000000029A6040F63053C2F2000340F63052C0
:100C1000C2F200025A6140F63053C2F200035A6930
:100C200040F63053C2F200031A617047AFF3008000
:100C300000B585B00190FFF743FE019B93F820308B
:100C4000002B04D0019B93F820300E2B05D141F6E8
:100C50003020C0F60000FFF7C3FE019B4FF00002FA
:100C600083F8202040F63053C2F200030393039B25
:100C70001B680393039B9A68019B9B689A42F6D278
:100C8000019B039A1A60039B5A68019B5A60019B5F
:100C90005B68039A01995160039A52681A60019B3C
:100CA000184605B000BD00BFAFF30080AFF3008071
:100CB00000B585B003468DF80730FFF719FE40F602
:100CC0003053C2F200039B690393039B9DF80720F6
:100CD00083F82020039B4FF0140283F8232040F672
:100CE0003050C2F20000FFF74BFF024640F630538F
:100CF000C2F200039A6140F63053C2F200039B69CE
:100D00004FF0010283F820200398FFF719FE6B468D
:100D1000A3F12402039BDB699A4205D241F64420E9
:100D2000C0F60000FFF75CFE40F63053C2F200034D
:100D30009B6918460399FFF793FB05B000BD00BF00
:100D400000B585B00190019B03934FF0200383F31E
:100D50001188FFF715FD039B93F820300D2B2FD83A
:100D600001A252F823F000BFA10D0008C10D000838
:100D7000C10D0008AF0D0008C10D0008BB0D000833
:100D8000C10D0008C10D0008C10D0008C10D00080B
:100D9000C10D0008C10D0008C10D0008BB0D000801
:100DA000FFF70EFD4FF0000383F3118815E0039B5E
:100DB0009B6A9A6802F101029A600398FFF7F8FEB5
:100DC000039B4FF0FF329A620398FFF731FFFFF762
:100DD000F7FC4FF0000383F3118805B000BD00BF9E
:100DE00000B589B0034600918DF80730FFF780FD0C
:100DF000009BB3F1FF3F1AD040F63053C2F200031C
:100E00009B6903AA1046009940F64152C0F60002C1
:100E1000FFF71EFE9DF807301846FFF749FF069BB7
:100E2000002B09D003AB1846FFF76AFE04E09DF8DB
:100E300007301846FFF73CFF40F63053C2F200037C
:100E40009B699B6A184609B000BD00BFAFF30080E4
:100E500000B585B001900091FFF74AFD019B009A13
:100E60009A62019B9A6840F63053C2F200039B6974
:100E70009B689A4203D80198FFF7DAFE28E040F613
:100E80003053C2F200039B691846FFF7D1FE0346B8
:100E9000039340F63053C2F20003019A9A61019B1A
:100EA0004FF0010283F820200398FFF749FD6B46BD
:100EB000A3F12402039BDB699A4205D241F6442048
:100EC000C0F60000FFF78CFD01980399FFF7C8FA00
:100ED00005B000BDAFF30080AFF30080AFF300803A
:100EE00000B583B040F63053C2F200039B69019312
:100EF00040F63050C2F20000FFF742FE024640F6D4
:100F00003053C2F200039A6140F63053C2F200033C
:100F10009B694FF0010283F82020019B4FF01402DF
:100F200083F823200198FFF783FE0198FFF708FD5F
:100F30006B46A3F12402019BDB699A4205D241F67C
:100F40004420C0F60000FFF74BFD40F63053C2F2DC
:100F500000039B6918460199FFF782FA03B000BDB0
:100F600000B583B040F63053C2F200039B69009392
:100F700040F63050C2F20000FFF702FE024640F693
:100F80003053C2F200039A6140F63053C2F20003BC
:100F90009B694FF0010283F82020009B4FF0000274
:100FA00083F8202040F63053C2F200030193019BE6
:100FB0001B680193019B9A68009B9B689A42F6D834
:100FC000009B019A1A60019B5A68009B5A60009B23
:100FD0005B68019A00995160019A52681A60009802
:100FE000FFF7AEFC6B46A3F12402009BDB699A423B
:100FF00005D241F64420C0F60000FFF7F1FC40F6B0
:101000003053C2F200039B6918460099FFF728FA93
:1010100003B000BDAFF30080AFF30080AFF30080FA
:1010200008B540F63053C2F200039B6993F82330B1
:10103000002B02D1FFF754FF01E0FFF791FF08BD3D
:1010400084B00190019B1B680393039B1A68019B6A
:101050001A60039B184604B0704700BFAFF30080CE
:1010600082B001900091019B009A9A60019B4FF021
:10107000020283F82020019B4FF0000283F8212018
:10108000019B4FF0140283F82320019B009A5A64BD
:10109000019B4FF000021A64019B4FF00002DA63DB
:1010A000019B4FF000025A62019B4FF0010283F84E
:1010B0002220019B4FF000029A61019A40F63053C2
:1010C000C2F20003136140F63053C2F200035A69C2
:1010D000019B5A61019B5A6940F63053C2F20003EA
:1010E0000199596140F63053C2F200035B69136104
:1010F000019B03F12C02019BDA62019B03F1300298
:10110000019B5A63019B5A6B019B1A63019B03F17C
:101110004C02019BDA61019B184602B0704700BF88
:1011200000B587B00390029101920093039B059351
:10113000FFF7C6FB039B002B08D0029BAF2B05D902
:10114000019B7F2B02D8009B002B05D141F660202C
:10115000C0F60000FFF744FC029BA3F12403039AAE
:10116000D218059BDA60059BDB68009A1A60059B24
:10117000DB68089A5A60059BDA6840F28143C0F642
:101180000003136205980199FFF76AFF03461846AA
:1011900007B000BDAFF30080AFF30080AFF3008075
:1011A00000B589B005900491039202934FF020039B
:1011B00083F31188FFF7A4FA0A9B0093059804991A
:1011C000039A029BFFF7ACFF0346079307984FF083
:1011D0000001FFF73DFEFFF7B3FA4FF0000383F382
:1011E0001188079B184609B000BD00BFAFF300800F
:1011F00000B583B00190019B002B05D141F6A020E2
:10120000C0F60000FFF7ECFB4FF0200383F31188DA
:10121000FFF776FA4FF006000199FFF7E1FDFFF7BF
:101220008FFA4FF0000383F3118803B000BD00BFB5
:1012300000B583B001904FF0200383F31188FFF7CE
:101240005FFA019800F004F803B000BDAFF300802E
:1012500000B585B0019040F63053C2F200039B699F
:101260000393039B019A9A6209E0039B03F12C0309
:101270001846FFF7E5FE03461846FFF7D9FC039B27
:10128000DA6A039B03F12C039A42EED1039B93F895
:10129000213003F00303002B09D1039B5B69039A00
:1012A00012691A61039B1B69039A52695A614FF0D4
:1012B0000E00FFF7FDFC41F6B020C0F60000FFF77E
:1012C0008FFB05B000BD00BFAFF30080AFF300801F
:1012D00000B583B00190019B002B05D141F6003091
:1012E000C0F60000FFF77CFB019A019B5A60019B4E
:1012F0005A68019B1A60019B4FF000029A6003B08C
:1013000000BD00BFAFF30080AFF30080AFF30080FB
:1013100040F6A863C2F2000303F1070323F00703BA
:101320001A4640F64C53C2F200031A604CF2000316
:10133000C2F2010323F007031A4640F65053C2F2EB
:1013400000031A60704700BFAFF30080AFF3008066
:1013500000B585B001904FF0200383F31188FFF7AB
:10136000CFF9019800F00CF803460393FFF7E8F972
:101370004FF0000383F31188039B184605B000BDAE
:1013800000B585B00190FFF79BFA019B03F10703BD
:1013900023F00703019340F65053C2F200031B6889
:1013A0001A4640F64C53C2F200031B68D31A1A4681
:1013B000019B9A4202D24FF0000312E040F64C53D8
:1013C000C2F200031B68039340F64C53C2F20003C1
:1013D0001A68019BD21840F64C53C2F200031A60FF
:1013E000039B184605B000BDAFF30080AFF300804B
:1013F00008B540F65853C2F2000341F25132C0F62C
:1014000000021A6040F65853C2F200034FF0000287
:101410009A6040F65853C2F200034FF00002DA60BF
:101420000148FFF755FF08BD680D0020AFF30080AD
:1014300008B500F055F841F6B030C0F6000000F0F5
:10144000CFF900F055FA08BDAFF30080AFF300808C
:101450004FF4E043C4F200034FF4E042C4F2000250
:10146000126842F480721A604FF46053C4F20203AF
:101470001B6F03F44073B3F5007F0DD04FF460533E
:10148000C4F202034FF480321A674FF46053C4F27F
:1014900002034FF000021A674FF46053C4F20203D4
:1014A0001B6F03F40043002B17D14FF46053C4F2B9
:1014B00002034FF46052C4F20202126F42F400724F
:1014C0001A674FF46053C4F202034FF46052C4F23F
:1014D0000202126F42F400421A677047AFF30080B5
:1014E00008B54FF46053C4F202034FF46052C4F2E3
:1014F0000202126942F001021A614FF46053C4F211
:1015000002034FF000021A614FF46053C4F2020369
:101510004FF46052C4F20202526942F001025A6171
:101520004FF46053C4F202034FF000025A614FF4CB
:101530006053C4F202034FF46052C4F20202926993
:1015400042F001029A614FF46053C4F202034FF07B
:1015500000029A614FF46053C4F202034FF46052E8
:10156000C4F20202126A1A624FF46053C4F2020318
:101570004FF000021A624FF46053C4F202034FF4BA
:101580006052C4F20202526A42F001025A624FF4FF
:101590006053C4F202034FF000025A624EF210038D
:1015A000CEF200034DF2BF42C0F201025A604EF289
:1015B0001003CEF200034FF000029A604EF21003C7
:1015C000CEF200034FF007021A604EF6F053CEF24F
:1015D00000034EF6F052CEF20002D26842F0807262
:1015E000DA604FF48053CEF200034FF48052CEF213
:1015F0000002126842F001021A604FF46053C4F214
:1016000002034FF46052C4F20202126C42F08052A4
:101610001A64FFF71DFF08BDAFF30080AFF3008031
:101620004FF46053C4F202034FF080521A644FF437
:10163000E043C4F200034FF000021A604FF460531D
:10164000C4F202034FF46052C4F20202126842F084
:1016500001021A6000BF4FF46053C4F202031B681A
:1016600003F00203002BF6D04FF46053C4F20203E0
:101670004FF46052C4F20202126842F480321A60DF
:1016800000BF4FF46053C4F202031B6803F400333D
:10169000002BF6D04FF46053C4F202034FF46052B3
:1016A000C4F20202526F42F001025A6700BF4FF4C7
:1016B0006053C4F202035B6F03F00203002BF6D009
:1016C0004FF46053C4F2020343F61942C0F2405291
:1016D0005A604FF46053C4F202034FF46052C4F2F4
:1016E0000202126842F080721A6000BF4FF4605329
:1016F000C4F202031B6803F00073002BF6D04FF412
:101700006052C4F202024FF46053C4F202039B68B9
:1017100019464FF41443C3F208030B4393604FF48C
:101720007053C4F2020340F203721A604FF4605324
:10173000C4F202034FF46052C4F20202926842F013
:1017400002029A6000BF4FF46053C4F202039B6828
:1017500003F00C03082BF6D14FF46053C4F20203DC
:101760004FF46052C4F20202526C42F480425A6456
:101770004FF46053C4F202034FF46052C4F2020209
:10178000526E42F480425A66704700BFAFF3008049
:1017900082B001900091009B1A68019B1A60009B27
:1017A0005A68019B5A60009B9A68019B9A60009B53
:1017B000DA68019BDA60009B1A69019B5A61009B01
:1017C0005A69019B1A62009B9A69019B5A6202B096
:1017D000704700BFAFF30080AFF30080AFF300802D
:1017E00000B583B001904FF46053C4F202034FF48C
:1017F0006052C4F20202126B6FEA52226FEA422276
:101800001A634FF46053C4F202034FF46052C4F2FF
:101810000202126D6FEA52226FEA42221A65019BA0
:101820004FF00000C4F202001946FFF7B1FF019B20
:1018300003F11C034FF48060C4F202001946FFF765
:10184000A7FF019B03F138034FF40060C4F20200CC
:101850001946FFF79DFF019B03F154034FF44060CD
:10186000C4F202001946FFF793FF019B03F17003D6
:101870004FF48050C4F202001946FFF789FF019B24
:1018800003F18C034FF4A050C4F202001946FFF795
:101890007FFF019B03F1A8034FF4C050C4F2020084
:1018A0001946FFF775FF019B03F1C4034FF4E050A5
:1018B000C4F202001946FFF76BFF019B03F1E0033E
:1018C0004FF40050C4F202001946FFF761FF03B065
:1018D00000BD00BFAFF30080AFF30080AFF3008026
:1018E00008B5FFF79DFE08BDAFF30080AFF30080A1
:1018F000704700BFAFF30080AFF30080AFF300800C
:1019000000B583B001904FF4C053C4F202034FF00E
:1019100040025A834FF4FA70FFF76AFC4FF4C05349
:10192000C4F202034FF040021A834FF4FA70FFF73B
:101930005FFCE8E7AFF30080AFF30080AFF3008017
:1019400000B583B0FFF774FDFEF7F2FD4FF0000322
:10195000009340F67850C2F200004FF498714FF0B7
:10196000400241F60113C0F60003FFF719FC4FF4E3
:10197000FA70FFF73DFCFAE7AFF30080AFF30080A9
:1019800069646C65000000006D61696E0000000014
:10199000535623310000000053562332000000004C
:1019A0005356233300000000535623340000000038
:1019B0005356233500000000535623360000000024
:1019C0005356233700000000535623380000000010
:1019D00053562339000000005356233130000000D5
:1019E00053562331310000000000000000000000C9
:1019F0002263685654536574492228290000000068
:101A00002263685654526573657449222829000080
:101A10006368565452657365744928292C20233114
:101A200000000000000000000000000000000000B6
:101A3000636853636852656164794928292C2023BF
:101A400031000000737461636B206F766572666CA1
:101A50006F770000000000000000000000000000A0
:101A60002263685468644372656174654922282959
:101A70000000000022636854686453657450726902
:101A80006F72697479222829000000006368546825
:101A900064526573756D6528292C20233100000080
:101AA000226368546864536C6565702228290000BD
:101AB0006368546864457869745328292C2023315D
:101AC000000000002263685468645761697422282A
:101AD0002900000063685468645761697428292CE0
:101AE0002023310063685468645761697428292C85
:101AF0002023320000000000000000000000000071
:101B00002263684D7478496E6974222829000000A8
:101B10002263684D74784C6F636B53222829000050
:101B200063684D74784C6F636B5328292C202331E4
:101B30000000000063684D74784C6F636B53282974
:101B40002C202332000000002263684D7478547208
:101B5000794C6F636B5322282900000063684D7431
:101B600078556E6C6F636B28292C202331000000A0
:101B700063684D7478556E6C6F636B28292C202335
:101B80003200000063684D7478556E6C6F636B5360
:101B900028292C202331000063684D7478556E6C21
:101BA0006F636B5328292C202332000000000000B3
:101BB000000002A800000000FFFFFFFF000000007F
:101BC000FFFFFFFF00000000000000008002000097
:101BD00000000000FFFFFFFFFFFFFFFFFFFFFFFF11
:101BE00000000000000000000000A800000000004D
:101BF000FFFFFFFFFFFFBFFFFFFFFFFF0000000031
:101C0000000000B00000000000000000FFFFFFFF28
:101C1000FFFFFFFFFFFFFFFF0000000000000000CC
:101C20000000000000000000FFFFFFFFFFFFFFFFBC
:101C3000FFFFFFFF000000000000000000000000A8
:101C400000000000FFFFFFFFFFFFFFFFFFFFFFFFA0
:101C50000000000000000000001000000000000074
:101C6000FFFFFFFFFFFFFFFFBFFFFFFF00000000C0
:101C7000000000000000000000000000FFFFFFFF68
:101C8000FFFFFFFFFFFFFFFF00000000000000005C
:101C90000000000000000000FFFFFFFFFFFFFFFF4C
:0C1CA000FFFFFFFF00000000000000003C
:04000005080001905E
:00000001FF
